{
  "contractName": "AllGames",
  "abi": [
    {
      "inputs": [
        {
          "internalType": "contract States",
          "name": "_states",
          "type": "address"
        }
      ],
      "stateMutability": "nonpayable",
      "type": "constructor"
    },
    {
      "anonymous": false,
      "inputs": [
        {
          "indexed": true,
          "internalType": "address",
          "name": "owner",
          "type": "address"
        },
        {
          "indexed": true,
          "internalType": "address",
          "name": "approved",
          "type": "address"
        },
        {
          "indexed": true,
          "internalType": "uint256",
          "name": "tokenId",
          "type": "uint256"
        }
      ],
      "name": "Approval",
      "type": "event"
    },
    {
      "anonymous": false,
      "inputs": [
        {
          "indexed": true,
          "internalType": "address",
          "name": "owner",
          "type": "address"
        },
        {
          "indexed": true,
          "internalType": "address",
          "name": "operator",
          "type": "address"
        },
        {
          "indexed": false,
          "internalType": "bool",
          "name": "approved",
          "type": "bool"
        }
      ],
      "name": "ApprovalForAll",
      "type": "event"
    },
    {
      "anonymous": false,
      "inputs": [
        {
          "indexed": false,
          "internalType": "uint256",
          "name": "_tokenId",
          "type": "uint256"
        },
        {
          "indexed": false,
          "internalType": "address",
          "name": "_gameAddress",
          "type": "address"
        },
        {
          "indexed": false,
          "internalType": "bool",
          "name": "_alive",
          "type": "bool"
        },
        {
          "indexed": false,
          "internalType": "uint8",
          "name": "_counterInitialInputs",
          "type": "uint8"
        }
      ],
      "name": "StateChange",
      "type": "event"
    },
    {
      "anonymous": false,
      "inputs": [
        {
          "indexed": true,
          "internalType": "address",
          "name": "from",
          "type": "address"
        },
        {
          "indexed": true,
          "internalType": "address",
          "name": "to",
          "type": "address"
        },
        {
          "indexed": true,
          "internalType": "uint256",
          "name": "tokenId",
          "type": "uint256"
        }
      ],
      "name": "Transfer",
      "type": "event"
    },
    {
      "inputs": [
        {
          "internalType": "address",
          "name": "to",
          "type": "address"
        },
        {
          "internalType": "uint256",
          "name": "tokenId",
          "type": "uint256"
        }
      ],
      "name": "approve",
      "outputs": [],
      "stateMutability": "nonpayable",
      "type": "function"
    },
    {
      "inputs": [
        {
          "internalType": "address",
          "name": "owner",
          "type": "address"
        }
      ],
      "name": "balanceOf",
      "outputs": [
        {
          "internalType": "uint256",
          "name": "",
          "type": "uint256"
        }
      ],
      "stateMutability": "view",
      "type": "function",
      "constant": true
    },
    {
      "inputs": [
        {
          "internalType": "uint256",
          "name": "",
          "type": "uint256"
        }
      ],
      "name": "games",
      "outputs": [
        {
          "internalType": "contract OneGame",
          "name": "_gameContract",
          "type": "address"
        },
        {
          "internalType": "uint8",
          "name": "_counterInitialInputs",
          "type": "uint8"
        },
        {
          "internalType": "bool",
          "name": "_alive",
          "type": "bool"
        },
        {
          "internalType": "uint256",
          "name": "_tokenId",
          "type": "uint256"
        }
      ],
      "stateMutability": "view",
      "type": "function",
      "constant": true
    },
    {
      "inputs": [
        {
          "internalType": "uint256",
          "name": "tokenId",
          "type": "uint256"
        }
      ],
      "name": "getApproved",
      "outputs": [
        {
          "internalType": "address",
          "name": "",
          "type": "address"
        }
      ],
      "stateMutability": "view",
      "type": "function",
      "constant": true
    },
    {
      "inputs": [
        {
          "internalType": "address",
          "name": "owner",
          "type": "address"
        },
        {
          "internalType": "address",
          "name": "operator",
          "type": "address"
        }
      ],
      "name": "isApprovedForAll",
      "outputs": [
        {
          "internalType": "bool",
          "name": "",
          "type": "bool"
        }
      ],
      "stateMutability": "view",
      "type": "function",
      "constant": true
    },
    {
      "inputs": [],
      "name": "name",
      "outputs": [
        {
          "internalType": "string",
          "name": "",
          "type": "string"
        }
      ],
      "stateMutability": "view",
      "type": "function",
      "constant": true
    },
    {
      "inputs": [
        {
          "internalType": "uint256",
          "name": "tokenId",
          "type": "uint256"
        }
      ],
      "name": "ownerOf",
      "outputs": [
        {
          "internalType": "address",
          "name": "",
          "type": "address"
        }
      ],
      "stateMutability": "view",
      "type": "function",
      "constant": true
    },
    {
      "inputs": [
        {
          "internalType": "address",
          "name": "from",
          "type": "address"
        },
        {
          "internalType": "address",
          "name": "to",
          "type": "address"
        },
        {
          "internalType": "uint256",
          "name": "tokenId",
          "type": "uint256"
        }
      ],
      "name": "safeTransferFrom",
      "outputs": [],
      "stateMutability": "nonpayable",
      "type": "function"
    },
    {
      "inputs": [
        {
          "internalType": "address",
          "name": "from",
          "type": "address"
        },
        {
          "internalType": "address",
          "name": "to",
          "type": "address"
        },
        {
          "internalType": "uint256",
          "name": "tokenId",
          "type": "uint256"
        },
        {
          "internalType": "bytes",
          "name": "_data",
          "type": "bytes"
        }
      ],
      "name": "safeTransferFrom",
      "outputs": [],
      "stateMutability": "nonpayable",
      "type": "function"
    },
    {
      "inputs": [
        {
          "internalType": "address",
          "name": "operator",
          "type": "address"
        },
        {
          "internalType": "bool",
          "name": "approved",
          "type": "bool"
        }
      ],
      "name": "setApprovalForAll",
      "outputs": [],
      "stateMutability": "nonpayable",
      "type": "function"
    },
    {
      "inputs": [
        {
          "internalType": "bytes4",
          "name": "interfaceId",
          "type": "bytes4"
        }
      ],
      "name": "supportsInterface",
      "outputs": [
        {
          "internalType": "bool",
          "name": "",
          "type": "bool"
        }
      ],
      "stateMutability": "view",
      "type": "function",
      "constant": true
    },
    {
      "inputs": [],
      "name": "symbol",
      "outputs": [
        {
          "internalType": "string",
          "name": "",
          "type": "string"
        }
      ],
      "stateMutability": "view",
      "type": "function",
      "constant": true
    },
    {
      "inputs": [
        {
          "internalType": "uint256",
          "name": "tokenId",
          "type": "uint256"
        }
      ],
      "name": "tokenURI",
      "outputs": [
        {
          "internalType": "string",
          "name": "",
          "type": "string"
        }
      ],
      "stateMutability": "view",
      "type": "function",
      "constant": true
    },
    {
      "inputs": [
        {
          "internalType": "address",
          "name": "from",
          "type": "address"
        },
        {
          "internalType": "address",
          "name": "to",
          "type": "address"
        },
        {
          "internalType": "uint256",
          "name": "tokenId",
          "type": "uint256"
        }
      ],
      "name": "transferFrom",
      "outputs": [],
      "stateMutability": "nonpayable",
      "type": "function"
    },
    {
      "inputs": [
        {
          "internalType": "uint256",
          "name": "_tokenId",
          "type": "uint256"
        },
        {
          "internalType": "uint256[]",
          "name": "_state",
          "type": "uint256[]"
        }
      ],
      "name": "inputState",
      "outputs": [],
      "stateMutability": "nonpayable",
      "type": "function"
    },
    {
      "inputs": [
        {
          "internalType": "uint256",
          "name": "_tokenId",
          "type": "uint256"
        }
      ],
      "name": "transitionToNewState",
      "outputs": [],
      "stateMutability": "nonpayable",
      "type": "function"
    },
    {
      "inputs": [],
      "name": "lastIndex",
      "outputs": [
        {
          "internalType": "uint256",
          "name": "",
          "type": "uint256"
        }
      ],
      "stateMutability": "view",
      "type": "function",
      "constant": true
    },
    {
      "inputs": [
        {
          "internalType": "uint256[]",
          "name": "_state",
          "type": "uint256[]"
        }
      ],
      "name": "mint",
      "outputs": [],
      "stateMutability": "nonpayable",
      "type": "function"
    },
    {
      "inputs": [
        {
          "internalType": "uint256",
          "name": "_tokenId",
          "type": "uint256"
        }
      ],
      "name": "getState",
      "outputs": [
        {
          "internalType": "uint256[]",
          "name": "stateArray",
          "type": "uint256[]"
        }
      ],
      "stateMutability": "nonpayable",
      "type": "function"
    }
  ],
  "bytecode": "0x60806040523480156200001157600080fd5b5060405162005e7438038062005e7483398181016040528101906200003791906200024d565b6040518060400160405280600a81526020017f47616d654f664c696665000000000000000000000000000000000000000000008152506040518060400160405280600381526020017f476f4c00000000000000000000000000000000000000000000000000000000008152508160009080519060200190620000bb9291906200011f565b508060019080519060200190620000d49291906200011f565b50505080600660006101000a81548173ffffffffffffffffffffffffffffffffffffffff021916908373ffffffffffffffffffffffffffffffffffffffff16021790555050620002e4565b8280546200012d90620002ae565b90600052602060002090601f0160209004810192826200015157600085556200019d565b82601f106200016c57805160ff19168380011785556200019d565b828001600101855582156200019d579182015b828111156200019c5782518255916020019190600101906200017f565b5b509050620001ac9190620001b0565b5090565b5b80821115620001cb576000816000905550600101620001b1565b5090565b600080fd5b600073ffffffffffffffffffffffffffffffffffffffff82169050919050565b60006200020182620001d4565b9050919050565b60006200021582620001f4565b9050919050565b620002278162000208565b81146200023357600080fd5b50565b60008151905062000247816200021c565b92915050565b600060208284031215620002665762000265620001cf565b5b6000620002768482850162000236565b91505092915050565b7f4e487b7100000000000000000000000000000000000000000000000000000000600052602260045260246000fd5b60006002820490506001821680620002c757607f821691505b60208210811415620002de57620002dd6200027f565b5b50919050565b615b8080620002f46000396000f3fe60806040523480156200001157600080fd5b50600436106200013c5760003560e01c80636352211e11620000bd578063b88d4fde116200007b578063b88d4fde146200038c578063c87b56dd14620003ac578063e985e9c514620003e2578063f3f6f0d71462000418578063f8e93ef9146200043a576200013c565b80636352211e14620002be57806370a0823114620002f457806395d89b41146200032a578063a22cb465146200034c578063ad3bfeaa146200036c576200013c565b8063117a5b90116200010b578063117a5b9014620001ef57806317535d1b146200022857806323b872dd146200024857806342842e0e146200026857806344c9af281462000288576200013c565b806301ffc9a7146200014157806306fdde031462000177578063081812fc1462000199578063095ea7b314620001cf575b600080fd5b6200015f6004803603810190620001599190620021ba565b6200045a565b6040516200016e919062002209565b60405180910390f35b6200018162000540565b604051620001909190620022ca565b60405180910390f35b620001b76004803603810190620001b1919062002329565b620005da565b604051620001c69190620023a0565b60405180910390f35b620001ed6004803603810190620001e79190620023ee565b62000664565b005b6200020d600480360381019062000207919062002329565b6200078d565b6040516200021f9493929190620024cf565b60405180910390f35b62000246600480360381019062000240919062002329565b620007f7565b005b6200026660048036038101906200026091906200251c565b620009f5565b005b6200028660048036038101906200028091906200251c565b62000a5e565b005b620002a66004803603810190620002a0919062002329565b62000a80565b604051620002b5919062002646565b60405180910390f35b620002dc6004803603810190620002d6919062002329565b62000b41565b604051620002eb9190620023a0565b60405180910390f35b6200031260048036038101906200030c91906200266a565b62000bf6565b6040516200032191906200269c565b60405180910390f35b6200033462000cb1565b604051620003439190620022ca565b60405180910390f35b6200036a6004803603810190620003649190620026ea565b62000d4b565b005b6200038a600480360381019062000384919062002895565b62000ed7565b005b620003aa6004803603810190620003a49190620029c3565b62001251565b005b620003ca6004803603810190620003c4919062002329565b620012bc565b604051620003d99190620022ca565b60405180910390f35b620004006004803603810190620003fa919062002a54565b62001370565b6040516200040f919062002209565b60405180910390f35b6200042262001404565b6040516200043191906200269c565b60405180910390f35b62000458600480360381019062000452919062002a9b565b62001417565b005b60007f80ac58cd000000000000000000000000000000000000000000000000000000007bffffffffffffffffffffffffffffffffffffffffffffffffffffffff1916827bffffffffffffffffffffffffffffffffffffffffffffffffffffffff191614806200052657507f5b5e139f000000000000000000000000000000000000000000000000000000007bffffffffffffffffffffffffffffffffffffffffffffffffffffffff1916827bffffffffffffffffffffffffffffffffffffffffffffffffffffffff1916145b80620005395750620005388262001698565b5b9050919050565b606060008054620005519062002b1b565b80601f01602080910402602001604051908101604052809291908181526020018280546200057f9062002b1b565b8015620005d05780601f10620005a457610100808354040283529160200191620005d0565b820191906000526020600020905b815481529060010190602001808311620005b257829003601f168201915b5050505050905090565b6000620005e78262001702565b62000629576040517f08c379a0000000000000000000000000000000000000000000000000000000008152600401620006209062002bc7565b60405180910390fd5b6004600083815260200190815260200160002060009054906101000a900473ffffffffffffffffffffffffffffffffffffffff169050919050565b6000620006718262000b41565b90508073ffffffffffffffffffffffffffffffffffffffff168373ffffffffffffffffffffffffffffffffffffffff161415620006e5576040517f08c379a0000000000000000000000000000000000000000000000000000000008152600401620006dc9062002c5f565b60405180910390fd5b8073ffffffffffffffffffffffffffffffffffffffff16620007066200176e565b73ffffffffffffffffffffffffffffffffffffffff1614806200073a57506200073981620007336200176e565b62001370565b5b6200077c576040517f08c379a0000000000000000000000000000000000000000000000000000000008152600401620007739062002cf7565b60405180910390fd5b62000788838362001776565b505050565b60086020528060005260406000206000915090508060000160009054906101000a900473ffffffffffffffffffffffffffffffffffffffff16908060000160149054906101000a900460ff16908060000160159054906101000a900460ff16908060010154905084565b600660009054906101000a900473ffffffffffffffffffffffffffffffffffffffff1673ffffffffffffffffffffffffffffffffffffffff1663fdb3bde6826040518263ffffffff1660e01b81526004016200085491906200269c565b600060405180830381600087803b1580156200086f57600080fd5b505af115801562000884573d6000803e3d6000fd5b505050506008600082815260200190815260200160002060000160009054906101000a900473ffffffffffffffffffffffffffffffffffffffff1673ffffffffffffffffffffffffffffffffffffffff166340c10f1933670de0b6b3a76400006040518363ffffffff1660e01b81526004016200090392919062002d5c565b600060405180830381600087803b1580156200091e57600080fd5b505af115801562000933573d6000803e3d6000fd5b505050507f90f518fa08cb3e16fff4e1a72808075b5868192df6355d12789c59b7cfc6c348816008600084815260200190815260200160002060000160009054906101000a900473ffffffffffffffffffffffffffffffffffffffff166008600085815260200190815260200160002060000160159054906101000a900460ff166008600086815260200190815260200160002060000160149054906101000a900460ff16604051620009ea949392919062002d89565b60405180910390a150565b62000a0a62000a036200176e565b8262001831565b62000a4c576040517f08c379a000000000000000000000000000000000000000000000000000000000815260040162000a439062002e4c565b60405180910390fd5b62000a598383836200191c565b505050565b62000a7b8383836040518060200160405280600081525062001251565b505050565b6060600660009054906101000a900473ffffffffffffffffffffffffffffffffffffffff1673ffffffffffffffffffffffffffffffffffffffff166344c9af28836040518263ffffffff1660e01b815260040162000adf91906200269c565b600060405180830381600087803b15801562000afa57600080fd5b505af115801562000b0f573d6000803e3d6000fd5b505050506040513d6000823e3d601f19601f8201168201806040525081019062000b3a919062002f2c565b9050919050565b6000806002600084815260200190815260200160002060009054906101000a900473ffffffffffffffffffffffffffffffffffffffff169050600073ffffffffffffffffffffffffffffffffffffffff168173ffffffffffffffffffffffffffffffffffffffff16141562000bed576040517f08c379a000000000000000000000000000000000000000000000000000000000815260040162000be49062002ff3565b60405180910390fd5b80915050919050565b60008073ffffffffffffffffffffffffffffffffffffffff168273ffffffffffffffffffffffffffffffffffffffff16141562000c6a576040517f08c379a000000000000000000000000000000000000000000000000000000000815260040162000c61906200308b565b60405180910390fd5b600360008373ffffffffffffffffffffffffffffffffffffffff1673ffffffffffffffffffffffffffffffffffffffff168152602001908152602001600020549050919050565b60606001805462000cc29062002b1b565b80601f016020809104026020016040519081016040528092919081815260200182805462000cf09062002b1b565b801562000d415780601f1062000d155761010080835404028352916020019162000d41565b820191906000526020600020905b81548152906001019060200180831162000d2357829003601f168201915b5050505050905090565b62000d556200176e565b73ffffffffffffffffffffffffffffffffffffffff168273ffffffffffffffffffffffffffffffffffffffff16141562000dc6576040517f08c379a000000000000000000000000000000000000000000000000000000000815260040162000dbd90620030fd565b60405180910390fd5b806005600062000dd56200176e565b73ffffffffffffffffffffffffffffffffffffffff1673ffffffffffffffffffffffffffffffffffffffff16815260200190815260200160002060008473ffffffffffffffffffffffffffffffffffffffff1673ffffffffffffffffffffffffffffffffffffffff16815260200190815260200160002060006101000a81548160ff0219169083151502179055508173ffffffffffffffffffffffffffffffffffffffff1662000e846200176e565b73ffffffffffffffffffffffffffffffffffffffff167f17307eab39ab6107e8899845ad3d59bd9653f200f220920489ca2b5937696c318360405162000ecb919062002209565b60405180910390a35050565b600015156008600084815260200190815260200160002060000160159054906101000a900460ff1615151415620010fe576008600083815260200190815260200160002060000160009054906101000a900473ffffffffffffffffffffffffffffffffffffffff1673ffffffffffffffffffffffffffffffffffffffff166340c10f1933678ac7230489e800006040518363ffffffff1660e01b815260040162000f8392919062003162565b600060405180830381600087803b15801562000f9e57600080fd5b505af115801562000fb3573d6000803e3d6000fd5b5050505060086000838152602001908152602001600020600001601481819054906101000a900460ff168092919062000fec90620031be565b91906101000a81548160ff021916908360ff16021790555050600660009054906101000a900473ffffffffffffffffffffffffffffffffffffffff1673ffffffffffffffffffffffffffffffffffffffff166356ac12ec82846040518363ffffffff1660e01b815260040162001064929190620031ed565b600060405180830381600087803b1580156200107f57600080fd5b505af115801562001094573d6000803e3d6000fd5b50505050600a6008600084815260200190815260200160002060000160149054906101000a900460ff1660ff161415620010f85760016008600084815260200190815260200160002060000160156101000a81548160ff0219169083151502179055505b62001192565b600660009054906101000a900473ffffffffffffffffffffffffffffffffffffffff1673ffffffffffffffffffffffffffffffffffffffff166356ac12ec82846040518363ffffffff1660e01b81526004016200115d929190620031ed565b600060405180830381600087803b1580156200117857600080fd5b505af11580156200118d573d6000803e3d6000fd5b505050505b7f90f518fa08cb3e16fff4e1a72808075b5868192df6355d12789c59b7cfc6c348826008600085815260200190815260200160002060000160009054906101000a900473ffffffffffffffffffffffffffffffffffffffff166008600086815260200190815260200160002060000160159054906101000a900460ff166008600087815260200190815260200160002060000160149054906101000a900460ff1660405162001245949392919062002d89565b60405180910390a15050565b620012666200125f6200176e565b8362001831565b620012a8576040517f08c379a00000000000000000000000000000000000000000000000000000000081526004016200129f9062002e4c565b60405180910390fd5b620012b68484848462001b88565b50505050565b6060620012c98262001702565b6200130b576040517f08c379a0000000000000000000000000000000000000000000000000000000008152600401620013029062003297565b60405180910390fd5b60006200131762001beb565b9050600081511162001339576040518060200160405280600081525062001368565b80620013458462001c02565b60405160200162001358929190620032fb565b6040516020818303038152906040525b915050919050565b6000600560008473ffffffffffffffffffffffffffffffffffffffff1673ffffffffffffffffffffffffffffffffffffffff16815260200190815260200160002060008373ffffffffffffffffffffffffffffffffffffffff1673ffffffffffffffffffffffffffffffffffffffff16815260200190815260200160002060009054906101000a900460ff16905092915050565b600062001412600762001d7c565b905090565b600068056bc75e2d63100000303360405162001433906200213b565b62001441939291906200338b565b604051809103906000f0801580156200145e573d6000803e3d6000fd5b509050806008600062001472600762001d7c565b815260200190815260200160002060000160006101000a81548173ffffffffffffffffffffffffffffffffffffffff021916908373ffffffffffffffffffffffffffffffffffffffff160217905550620014cd600762001d7c565b60086000620014dd600762001d7c565b815260200190815260200160002060010181905550600660009054906101000a900473ffffffffffffffffffffffffffffffffffffffff1673ffffffffffffffffffffffffffffffffffffffff166356ac12ec836200153d600762001d7c565b6040518363ffffffff1660e01b81526004016200155c929190620031ed565b600060405180830381600087803b1580156200157757600080fd5b505af11580156200158c573d6000803e3d6000fd5b50505050600160086000620015a2600762001d7c565b815260200190815260200160002060000160146101000a81548160ff021916908360ff1602179055507f90f518fa08cb3e16fff4e1a72808075b5868192df6355d12789c59b7cfc6c348620015f8600762001d7c565b826008600062001609600762001d7c565b815260200190815260200160002060000160159054906101000a900460ff166008600062001638600762001d7c565b815260200190815260200160002060000160149054906101000a900460ff1660405162001669949392919062002d89565b60405180910390a1620016888162001682600762001d7c565b62001d8a565b62001694600762001f64565b5050565b60007f01ffc9a7000000000000000000000000000000000000000000000000000000007bffffffffffffffffffffffffffffffffffffffffffffffffffffffff1916827bffffffffffffffffffffffffffffffffffffffffffffffffffffffff1916149050919050565b60008073ffffffffffffffffffffffffffffffffffffffff166002600084815260200190815260200160002060009054906101000a900473ffffffffffffffffffffffffffffffffffffffff1673ffffffffffffffffffffffffffffffffffffffff1614159050919050565b600033905090565b816004600083815260200190815260200160002060006101000a81548173ffffffffffffffffffffffffffffffffffffffff021916908373ffffffffffffffffffffffffffffffffffffffff160217905550808273ffffffffffffffffffffffffffffffffffffffff16620017eb8362000b41565b73ffffffffffffffffffffffffffffffffffffffff167f8c5be1e5ebec7d5bd14f71427d1e84f3dd0314c0f7b2291e5b200ac8c7c3b92560405160405180910390a45050565b60006200183e8262001702565b62001880576040517f08c379a000000000000000000000000000000000000000000000000000000000815260040162001877906200343e565b60405180910390fd5b60006200188d8362000b41565b90508073ffffffffffffffffffffffffffffffffffffffff168473ffffffffffffffffffffffffffffffffffffffff161480620018ff57508373ffffffffffffffffffffffffffffffffffffffff16620018e784620005da565b73ffffffffffffffffffffffffffffffffffffffff16145b8062001913575062001912818562001370565b5b91505092915050565b8273ffffffffffffffffffffffffffffffffffffffff166200193e8262000b41565b73ffffffffffffffffffffffffffffffffffffffff161462001997576040517f08c379a00000000000000000000000000000000000000000000000000000000081526004016200198e90620034d6565b60405180910390fd5b600073ffffffffffffffffffffffffffffffffffffffff168273ffffffffffffffffffffffffffffffffffffffff16141562001a0a576040517f08c379a000000000000000000000000000000000000000000000000000000000815260040162001a01906200356e565b60405180910390fd5b62001a1783838362001f7a565b62001a2460008262001776565b6001600360008573ffffffffffffffffffffffffffffffffffffffff1673ffffffffffffffffffffffffffffffffffffffff168152602001908152602001600020600082825462001a76919062003590565b925050819055506001600360008473ffffffffffffffffffffffffffffffffffffffff1673ffffffffffffffffffffffffffffffffffffffff168152602001908152602001600020600082825462001acf9190620035cb565b92505081905550816002600083815260200190815260200160002060006101000a81548173ffffffffffffffffffffffffffffffffffffffff021916908373ffffffffffffffffffffffffffffffffffffffff160217905550808273ffffffffffffffffffffffffffffffffffffffff168473ffffffffffffffffffffffffffffffffffffffff167fddf252ad1be2c89b69c2b068fc378daa952ba7f163c4a11628f55a4df523b3ef60405160405180910390a4505050565b62001b958484846200191c565b62001ba38484848462001f7f565b62001be5576040517f08c379a000000000000000000000000000000000000000000000000000000000815260040162001bdc906200369e565b60405180910390fd5b50505050565b606060405180602001604052806000815250905090565b6060600082141562001c4c576040518060400160405280600181526020017f3000000000000000000000000000000000000000000000000000000000000000815250905062001d77565b600082905060005b6000821462001c8457808062001c6a90620036c0565b915050600a8262001c7c91906200373d565b915062001c54565b60008167ffffffffffffffff81111562001ca35762001ca262002736565b5b6040519080825280601f01601f19166020018201604052801562001cd65781602001600182028036833780820191505090505b5090505b6000851462001d705760018262001cf2919062003590565b9150600a8562001d03919062003775565b603062001d119190620035cb565b60f81b81838151811062001d2a5762001d29620037ad565b5b60200101907effffffffffffffffffffffffffffffffffffffffffffffffffffffffffffff1916908160001a905350600a8562001d6891906200373d565b945062001cda565b8093505050505b919050565b600081600001549050919050565b600073ffffffffffffffffffffffffffffffffffffffff168273ffffffffffffffffffffffffffffffffffffffff16141562001dfd576040517f08c379a000000000000000000000000000000000000000000000000000000000815260040162001df4906200382c565b60405180910390fd5b62001e088162001702565b1562001e4b576040517f08c379a000000000000000000000000000000000000000000000000000000000815260040162001e42906200389e565b60405180910390fd5b62001e596000838362001f7a565b6001600360008473ffffffffffffffffffffffffffffffffffffffff1673ffffffffffffffffffffffffffffffffffffffff168152602001908152602001600020600082825462001eab9190620035cb565b92505081905550816002600083815260200190815260200160002060006101000a81548173ffffffffffffffffffffffffffffffffffffffff021916908373ffffffffffffffffffffffffffffffffffffffff160217905550808273ffffffffffffffffffffffffffffffffffffffff16600073ffffffffffffffffffffffffffffffffffffffff167fddf252ad1be2c89b69c2b068fc378daa952ba7f163c4a11628f55a4df523b3ef60405160405180910390a45050565b6001816000016000828254019250508190555050565b505050565b600062001fa28473ffffffffffffffffffffffffffffffffffffffff1662002128565b156200211b578373ffffffffffffffffffffffffffffffffffffffff1663150b7a0262001fce6200176e565b8786866040518563ffffffff1660e01b815260040162001ff294939291906200391d565b602060405180830381600087803b1580156200200d57600080fd5b505af19250505080156200204157506040513d601f19601f820116820180604052508101906200203e919062003988565b60015b620020ca573d806000811462002074576040519150601f19603f3d011682016040523d82523d6000602084013e62002079565b606091505b50600081511415620020c2576040517f08c379a0000000000000000000000000000000000000000000000000000000008152600401620020b9906200369e565b60405180910390fd5b805181602001fd5b63150b7a0260e01b7bffffffffffffffffffffffffffffffffffffffffffffffffffffffff1916817bffffffffffffffffffffffffffffffffffffffffffffffffffffffff19161491505062002120565b600190505b949350505050565b600080823b905060008111915050919050565b61219080620039bb83390190565b6000604051905090565b600080fd5b600080fd5b60007fffffffff0000000000000000000000000000000000000000000000000000000082169050919050565b62002194816200215d565b8114620021a057600080fd5b50565b600081359050620021b48162002189565b92915050565b600060208284031215620021d357620021d262002153565b5b6000620021e384828501620021a3565b91505092915050565b60008115159050919050565b6200220381620021ec565b82525050565b6000602082019050620022206000830184620021f8565b92915050565b600081519050919050565b600082825260208201905092915050565b60005b838110156200226257808201518184015260208101905062002245565b8381111562002272576000848401525b50505050565b6000601f19601f8301169050919050565b6000620022968262002226565b620022a2818562002231565b9350620022b481856020860162002242565b620022bf8162002278565b840191505092915050565b60006020820190508181036000830152620022e6818462002289565b905092915050565b6000819050919050565b6200230381620022ee565b81146200230f57600080fd5b50565b6000813590506200232381620022f8565b92915050565b60006020828403121562002342576200234162002153565b5b6000620023528482850162002312565b91505092915050565b600073ffffffffffffffffffffffffffffffffffffffff82169050919050565b600062002388826200235b565b9050919050565b6200239a816200237b565b82525050565b6000602082019050620023b760008301846200238f565b92915050565b620023c8816200237b565b8114620023d457600080fd5b50565b600081359050620023e881620023bd565b92915050565b6000806040838503121562002408576200240762002153565b5b60006200241885828601620023d7565b92505060206200242b8582860162002312565b9150509250929050565b6000819050919050565b6000620024606200245a62002454846200235b565b62002435565b6200235b565b9050919050565b600062002474826200243f565b9050919050565b6000620024888262002467565b9050919050565b6200249a816200247b565b82525050565b600060ff82169050919050565b620024b881620024a0565b82525050565b620024c981620022ee565b82525050565b6000608082019050620024e660008301876200248f565b620024f56020830186620024ad565b620025046040830185620021f8565b620025136060830184620024be565b95945050505050565b60008060006060848603121562002538576200253762002153565b5b60006200254886828701620023d7565b93505060206200255b86828701620023d7565b92505060406200256e8682870162002312565b9150509250925092565b600081519050919050565b600082825260208201905092915050565b6000819050602082019050919050565b620025af81620022ee565b82525050565b6000620025c38383620025a4565b60208301905092915050565b6000602082019050919050565b6000620025e98262002578565b620025f5818562002583565b9350620026028362002594565b8060005b83811015620026395781516200261d8882620025b5565b97506200262a83620025cf565b92505060018101905062002606565b5085935050505092915050565b60006020820190508181036000830152620026628184620025dc565b905092915050565b60006020828403121562002683576200268262002153565b5b60006200269384828501620023d7565b91505092915050565b6000602082019050620026b36000830184620024be565b92915050565b620026c481620021ec565b8114620026d057600080fd5b50565b600081359050620026e481620026b9565b92915050565b6000806040838503121562002704576200270362002153565b5b60006200271485828601620023d7565b92505060206200272785828601620026d3565b9150509250929050565b600080fd5b7f4e487b7100000000000000000000000000000000000000000000000000000000600052604160045260246000fd5b620027708262002278565b810181811067ffffffffffffffff8211171562002792576200279162002736565b5b80604052505050565b6000620027a762002149565b9050620027b5828262002765565b919050565b600067ffffffffffffffff821115620027d857620027d762002736565b5b602082029050602081019050919050565b600080fd5b600062002805620027ff84620027ba565b6200279b565b905080838252602082019050602084028301858111156200282b576200282a620027e9565b5b835b8181101562002858578062002843888262002312565b8452602084019350506020810190506200282d565b5050509392505050565b600082601f8301126200287a576200287962002731565b5b81356200288c848260208601620027ee565b91505092915050565b60008060408385031215620028af57620028ae62002153565b5b6000620028bf8582860162002312565b925050602083013567ffffffffffffffff811115620028e357620028e262002158565b5b620028f18582860162002862565b9150509250929050565b600080fd5b600067ffffffffffffffff8211156200291e576200291d62002736565b5b620029298262002278565b9050602081019050919050565b82818337600083830152505050565b60006200295c620029568462002900565b6200279b565b9050828152602081018484840111156200297b576200297a620028fb565b5b6200298884828562002936565b509392505050565b600082601f830112620029a857620029a762002731565b5b8135620029ba84826020860162002945565b91505092915050565b60008060008060808587031215620029e057620029df62002153565b5b6000620029f087828801620023d7565b945050602062002a0387828801620023d7565b935050604062002a168782880162002312565b925050606085013567ffffffffffffffff81111562002a3a5762002a3962002158565b5b62002a488782880162002990565b91505092959194509250565b6000806040838503121562002a6e5762002a6d62002153565b5b600062002a7e85828601620023d7565b925050602062002a9185828601620023d7565b9150509250929050565b60006020828403121562002ab45762002ab362002153565b5b600082013567ffffffffffffffff81111562002ad55762002ad462002158565b5b62002ae38482850162002862565b91505092915050565b7f4e487b7100000000000000000000000000000000000000000000000000000000600052602260045260246000fd5b6000600282049050600182168062002b3457607f821691505b6020821081141562002b4b5762002b4a62002aec565b5b50919050565b7f4552433732313a20617070726f76656420717565727920666f72206e6f6e657860008201527f697374656e7420746f6b656e0000000000000000000000000000000000000000602082015250565b600062002baf602c8362002231565b915062002bbc8262002b51565b604082019050919050565b6000602082019050818103600083015262002be28162002ba0565b9050919050565b7f4552433732313a20617070726f76616c20746f2063757272656e74206f776e6560008201527f7200000000000000000000000000000000000000000000000000000000000000602082015250565b600062002c4760218362002231565b915062002c548262002be9565b604082019050919050565b6000602082019050818103600083015262002c7a8162002c38565b9050919050565b7f4552433732313a20617070726f76652063616c6c6572206973206e6f74206f7760008201527f6e6572206e6f7220617070726f76656420666f7220616c6c0000000000000000602082015250565b600062002cdf60388362002231565b915062002cec8262002c81565b604082019050919050565b6000602082019050818103600083015262002d128162002cd0565b9050919050565b6000819050919050565b600062002d4462002d3e62002d388462002d19565b62002435565b620022ee565b9050919050565b62002d568162002d23565b82525050565b600060408201905062002d7360008301856200238f565b62002d82602083018462002d4b565b9392505050565b600060808201905062002da06000830187620024be565b62002daf60208301866200238f565b62002dbe6040830185620021f8565b62002dcd6060830184620024ad565b95945050505050565b7f4552433732313a207472616e736665722063616c6c6572206973206e6f74206f60008201527f776e6572206e6f7220617070726f766564000000000000000000000000000000602082015250565b600062002e3460318362002231565b915062002e418262002dd6565b604082019050919050565b6000602082019050818103600083015262002e678162002e25565b9050919050565b60008151905062002e7f81620022f8565b92915050565b600062002e9c62002e9684620027ba565b6200279b565b9050808382526020820190506020840283018581111562002ec25762002ec1620027e9565b5b835b8181101562002eef578062002eda888262002e6e565b84526020840193505060208101905062002ec4565b5050509392505050565b600082601f83011262002f115762002f1062002731565b5b815162002f2384826020860162002e85565b91505092915050565b60006020828403121562002f455762002f4462002153565b5b600082015167ffffffffffffffff81111562002f665762002f6562002158565b5b62002f748482850162002ef9565b91505092915050565b7f4552433732313a206f776e657220717565727920666f72206e6f6e657869737460008201527f656e7420746f6b656e0000000000000000000000000000000000000000000000602082015250565b600062002fdb60298362002231565b915062002fe88262002f7d565b604082019050919050565b600060208201905081810360008301526200300e8162002fcc565b9050919050565b7f4552433732313a2062616c616e636520717565727920666f7220746865207a6560008201527f726f206164647265737300000000000000000000000000000000000000000000602082015250565b600062003073602a8362002231565b9150620030808262003015565b604082019050919050565b60006020820190508181036000830152620030a68162003064565b9050919050565b7f4552433732313a20617070726f766520746f2063616c6c657200000000000000600082015250565b6000620030e560198362002231565b9150620030f282620030ad565b602082019050919050565b600060208201905081810360008301526200311881620030d6565b9050919050565b6000819050919050565b60006200314a620031446200313e846200311f565b62002435565b620022ee565b9050919050565b6200315c8162003129565b82525050565b60006040820190506200317960008301856200238f565b62003188602083018462003151565b9392505050565b7f4e487b7100000000000000000000000000000000000000000000000000000000600052601160045260246000fd5b6000620031cb82620024a0565b915060ff821415620031e257620031e16200318f565b5b600182019050919050565b60006040820190508181036000830152620032098185620025dc565b90506200321a6020830184620024be565b9392505050565b7f4552433732314d657461646174613a2055524920717565727920666f72206e6f60008201527f6e6578697374656e7420746f6b656e0000000000000000000000000000000000602082015250565b60006200327f602f8362002231565b91506200328c8262003221565b604082019050919050565b60006020820190508181036000830152620032b28162003270565b9050919050565b600081905092915050565b6000620032d18262002226565b620032dd8185620032b9565b9350620032ef81856020860162002242565b80840191505092915050565b6000620033098285620032c4565b9150620033178284620032c4565b91508190509392505050565b6000819050919050565b60006200334e62003348620033428462003323565b62002435565b620022ee565b9050919050565b62003360816200332d565b82525050565b6000620033738262002467565b9050919050565b620033858162003366565b82525050565b6000606082019050620033a2600083018662003355565b620033b160208301856200337a565b620033c060408301846200238f565b949350505050565b7f4552433732313a206f70657261746f7220717565727920666f72206e6f6e657860008201527f697374656e7420746f6b656e0000000000000000000000000000000000000000602082015250565b600062003426602c8362002231565b91506200343382620033c8565b604082019050919050565b60006020820190508181036000830152620034598162003417565b9050919050565b7f4552433732313a207472616e73666572206f6620746f6b656e2074686174206960008201527f73206e6f74206f776e0000000000000000000000000000000000000000000000602082015250565b6000620034be60298362002231565b9150620034cb8262003460565b604082019050919050565b60006020820190508181036000830152620034f181620034af565b9050919050565b7f4552433732313a207472616e7366657220746f20746865207a65726f2061646460008201527f7265737300000000000000000000000000000000000000000000000000000000602082015250565b60006200355660248362002231565b91506200356382620034f8565b604082019050919050565b60006020820190508181036000830152620035898162003547565b9050919050565b60006200359d82620022ee565b9150620035aa83620022ee565b925082821015620035c057620035bf6200318f565b5b828203905092915050565b6000620035d882620022ee565b9150620035e583620022ee565b9250827fffffffffffffffffffffffffffffffffffffffffffffffffffffffffffffffff038211156200361d576200361c6200318f565b5b828201905092915050565b7f4552433732313a207472616e7366657220746f206e6f6e20455243373231526560008201527f63656976657220696d706c656d656e7465720000000000000000000000000000602082015250565b60006200368660328362002231565b9150620036938262003628565b604082019050919050565b60006020820190508181036000830152620036b98162003677565b9050919050565b6000620036cd82620022ee565b91507fffffffffffffffffffffffffffffffffffffffffffffffffffffffffffffffff8214156200370357620037026200318f565b5b600182019050919050565b7f4e487b7100000000000000000000000000000000000000000000000000000000600052601260045260246000fd5b60006200374a82620022ee565b91506200375783620022ee565b9250826200376a57620037696200370e565b5b828204905092915050565b60006200378282620022ee565b91506200378f83620022ee565b925082620037a257620037a16200370e565b5b828206905092915050565b7f4e487b7100000000000000000000000000000000000000000000000000000000600052603260045260246000fd5b7f4552433732313a206d696e7420746f20746865207a65726f2061646472657373600082015250565b60006200381460208362002231565b91506200382182620037dc565b602082019050919050565b60006020820190508181036000830152620038478162003805565b9050919050565b7f4552433732313a20746f6b656e20616c7265616479206d696e74656400000000600082015250565b600062003886601c8362002231565b915062003893826200384e565b602082019050919050565b60006020820190508181036000830152620038b98162003877565b9050919050565b600081519050919050565b600082825260208201905092915050565b6000620038e982620038c0565b620038f58185620038cb565b93506200390781856020860162002242565b620039128162002278565b840191505092915050565b60006080820190506200393460008301876200238f565b6200394360208301866200238f565b620039526040830185620024be565b8181036060830152620039668184620038dc565b905095945050505050565b600081519050620039828162002189565b92915050565b600060208284031215620039a157620039a062002153565b5b6000620039b18482850162003971565b9150509291505056fe60806040523480156200001157600080fd5b50604051620021903803806200219083398181016040528101906200003791906200053e565b6040518060400160405280600c81526020017f47616d65206f66204c69666500000000000000000000000000000000000000008152506040518060400160405280600681526020017f4f6e65476f4c00000000000000000000000000000000000000000000000000008152508160039080519060200190620000bb929190620003a4565b508060049080519060200190620000d4929190620003a4565b505050620000f7620000eb6200015360201b60201c565b6200015b60201b60201c565b81600660006101000a81548173ffffffffffffffffffffffffffffffffffffffff021916908373ffffffffffffffffffffffffffffffffffffffff1602179055506200014a81846200022160201b60201c565b5050506200073c565b600033905090565b6000600560009054906101000a900473ffffffffffffffffffffffffffffffffffffffff16905081600560006101000a81548173ffffffffffffffffffffffffffffffffffffffff021916908373ffffffffffffffffffffffffffffffffffffffff1602179055508173ffffffffffffffffffffffffffffffffffffffff168173ffffffffffffffffffffffffffffffffffffffff167f8be0079c531659141344cd1fd0a4f28419497f9722a3daafe3b4186f6b6457e060405160405180910390a35050565b600073ffffffffffffffffffffffffffffffffffffffff168273ffffffffffffffffffffffffffffffffffffffff16141562000294576040517f08c379a00000000000000000000000000000000000000000000000000000000081526004016200028b90620005fb565b60405180910390fd5b620002a8600083836200039a60201b60201c565b8060026000828254620002bc91906200064c565b92505081905550806000808473ffffffffffffffffffffffffffffffffffffffff1673ffffffffffffffffffffffffffffffffffffffff16815260200190815260200160002060008282546200031391906200064c565b925050819055508173ffffffffffffffffffffffffffffffffffffffff16600073ffffffffffffffffffffffffffffffffffffffff167fddf252ad1be2c89b69c2b068fc378daa952ba7f163c4a11628f55a4df523b3ef836040516200037a9190620006ba565b60405180910390a362000396600083836200039f60201b60201c565b5050565b505050565b505050565b828054620003b29062000706565b90600052602060002090601f016020900481019282620003d6576000855562000422565b82601f10620003f157805160ff191683800117855562000422565b8280016001018555821562000422579182015b828111156200042157825182559160200191906001019062000404565b5b50905062000431919062000435565b5090565b5b808211156200045057600081600090555060010162000436565b5090565b600080fd5b6000819050919050565b6200046e8162000459565b81146200047a57600080fd5b50565b6000815190506200048e8162000463565b92915050565b600073ffffffffffffffffffffffffffffffffffffffff82169050919050565b6000620004c18262000494565b9050919050565b6000620004d582620004b4565b9050919050565b620004e781620004c8565b8114620004f357600080fd5b50565b6000815190506200050781620004dc565b92915050565b6200051881620004b4565b81146200052457600080fd5b50565b60008151905062000538816200050d565b92915050565b6000806000606084860312156200055a576200055962000454565b5b60006200056a868287016200047d565b93505060206200057d86828701620004f6565b9250506040620005908682870162000527565b9150509250925092565b600082825260208201905092915050565b7f45524332303a206d696e7420746f20746865207a65726f206164647265737300600082015250565b6000620005e3601f836200059a565b9150620005f082620005ab565b602082019050919050565b600060208201905081810360008301526200061681620005d4565b9050919050565b7f4e487b7100000000000000000000000000000000000000000000000000000000600052601160045260246000fd5b6000620006598262000459565b9150620006668362000459565b9250827fffffffffffffffffffffffffffffffffffffffffffffffffffffffffffffffff038211156200069e576200069d6200061d565b5b828201905092915050565b620006b48162000459565b82525050565b6000602082019050620006d16000830184620006a9565b92915050565b7f4e487b7100000000000000000000000000000000000000000000000000000000600052602260045260246000fd5b600060028204905060018216806200071f57607f821691505b60208210811415620007365762000735620006d7565b5b50919050565b611a44806200074c6000396000f3fe608060405234801561001057600080fd5b50600436106100f55760003560e01c806370a0823111610097578063a457c2d711610066578063a457c2d714610276578063a9059cbb146102a6578063dd62ed3e146102d6578063f2fde38b14610306576100f5565b806370a0823114610200578063715018a6146102305780638da5cb5b1461023a57806395d89b4114610258576100f5565b806323b872dd116100d357806323b872dd14610166578063313ce5671461019657806339509351146101b457806340c10f19146101e4576100f5565b806306fdde03146100fa578063095ea7b31461011857806318160ddd14610148575b600080fd5b610102610322565b60405161010f9190611144565b60405180910390f35b610132600480360381019061012d91906111ff565b6103b4565b60405161013f919061125a565b60405180910390f35b6101506103d2565b60405161015d9190611284565b60405180910390f35b610180600480360381019061017b919061129f565b6103dc565b60405161018d919061125a565b60405180910390f35b61019e6104d4565b6040516101ab919061130e565b60405180910390f35b6101ce60048036038101906101c991906111ff565b6104dd565b6040516101db919061125a565b60405180910390f35b6101fe60048036038101906101f991906111ff565b610589565b005b61021a60048036038101906102159190611329565b610613565b6040516102279190611284565b60405180910390f35b61023861065b565b005b6102426106e3565b60405161024f9190611365565b60405180910390f35b61026061070d565b60405161026d9190611144565b60405180910390f35b610290600480360381019061028b91906111ff565b61079f565b60405161029d919061125a565b60405180910390f35b6102c060048036038101906102bb91906111ff565b61088a565b6040516102cd919061125a565b60405180910390f35b6102f060048036038101906102eb9190611380565b6108a8565b6040516102fd9190611284565b60405180910390f35b610320600480360381019061031b9190611329565b61092f565b005b606060038054610331906113ef565b80601f016020809104026020016040519081016040528092919081815260200182805461035d906113ef565b80156103aa5780601f1061037f576101008083540402835291602001916103aa565b820191906000526020600020905b81548152906001019060200180831161038d57829003601f168201915b5050505050905090565b60006103c86103c1610a27565b8484610a2f565b6001905092915050565b6000600254905090565b60006103e9848484610bfa565b6000600160008673ffffffffffffffffffffffffffffffffffffffff1673ffffffffffffffffffffffffffffffffffffffff1681526020019081526020016000206000610434610a27565b73ffffffffffffffffffffffffffffffffffffffff1673ffffffffffffffffffffffffffffffffffffffff168152602001908152602001600020549050828110156104b4576040517f08c379a00000000000000000000000000000000000000000000000000000000081526004016104ab90611493565b60405180910390fd5b6104c8856104c0610a27565b858403610a2f565b60019150509392505050565b60006012905090565b600061057f6104ea610a27565b8484600160006104f8610a27565b73ffffffffffffffffffffffffffffffffffffffff1673ffffffffffffffffffffffffffffffffffffffff16815260200190815260200160002060008873ffffffffffffffffffffffffffffffffffffffff1673ffffffffffffffffffffffffffffffffffffffff1681526020019081526020016000205461057a91906114e2565b610a2f565b6001905092915050565b610591610a27565b73ffffffffffffffffffffffffffffffffffffffff166105af6106e3565b73ffffffffffffffffffffffffffffffffffffffff1614610605576040517f08c379a00000000000000000000000000000000000000000000000000000000081526004016105fc90611584565b60405180910390fd5b61060f8282610e7b565b5050565b60008060008373ffffffffffffffffffffffffffffffffffffffff1673ffffffffffffffffffffffffffffffffffffffff168152602001908152602001600020549050919050565b610663610a27565b73ffffffffffffffffffffffffffffffffffffffff166106816106e3565b73ffffffffffffffffffffffffffffffffffffffff16146106d7576040517f08c379a00000000000000000000000000000000000000000000000000000000081526004016106ce90611584565b60405180910390fd5b6106e16000610fdb565b565b6000600560009054906101000a900473ffffffffffffffffffffffffffffffffffffffff16905090565b60606004805461071c906113ef565b80601f0160208091040260200160405190810160405280929190818152602001828054610748906113ef565b80156107955780601f1061076a57610100808354040283529160200191610795565b820191906000526020600020905b81548152906001019060200180831161077857829003601f168201915b5050505050905090565b600080600160006107ae610a27565b73ffffffffffffffffffffffffffffffffffffffff1673ffffffffffffffffffffffffffffffffffffffff16815260200190815260200160002060008573ffffffffffffffffffffffffffffffffffffffff1673ffffffffffffffffffffffffffffffffffffffff1681526020019081526020016000205490508281101561086b576040517f08c379a000000000000000000000000000000000000000000000000000000000815260040161086290611616565b60405180910390fd5b61087f610876610a27565b85858403610a2f565b600191505092915050565b600061089e610897610a27565b8484610bfa565b6001905092915050565b6000600160008473ffffffffffffffffffffffffffffffffffffffff1673ffffffffffffffffffffffffffffffffffffffff16815260200190815260200160002060008373ffffffffffffffffffffffffffffffffffffffff1673ffffffffffffffffffffffffffffffffffffffff16815260200190815260200160002054905092915050565b610937610a27565b73ffffffffffffffffffffffffffffffffffffffff166109556106e3565b73ffffffffffffffffffffffffffffffffffffffff16146109ab576040517f08c379a00000000000000000000000000000000000000000000000000000000081526004016109a290611584565b60405180910390fd5b600073ffffffffffffffffffffffffffffffffffffffff168173ffffffffffffffffffffffffffffffffffffffff161415610a1b576040517f08c379a0000000000000000000000000000000000000000000000000000000008152600401610a12906116a8565b60405180910390fd5b610a2481610fdb565b50565b600033905090565b600073ffffffffffffffffffffffffffffffffffffffff168373ffffffffffffffffffffffffffffffffffffffff161415610a9f576040517f08c379a0000000000000000000000000000000000000000000000000000000008152600401610a969061173a565b60405180910390fd5b600073ffffffffffffffffffffffffffffffffffffffff168273ffffffffffffffffffffffffffffffffffffffff161415610b0f576040517f08c379a0000000000000000000000000000000000000000000000000000000008152600401610b06906117cc565b60405180910390fd5b80600160008573ffffffffffffffffffffffffffffffffffffffff1673ffffffffffffffffffffffffffffffffffffffff16815260200190815260200160002060008473ffffffffffffffffffffffffffffffffffffffff1673ffffffffffffffffffffffffffffffffffffffff168152602001908152602001600020819055508173ffffffffffffffffffffffffffffffffffffffff168373ffffffffffffffffffffffffffffffffffffffff167f8c5be1e5ebec7d5bd14f71427d1e84f3dd0314c0f7b2291e5b200ac8c7c3b92583604051610bed9190611284565b60405180910390a3505050565b600073ffffffffffffffffffffffffffffffffffffffff168373ffffffffffffffffffffffffffffffffffffffff161415610c6a576040517f08c379a0000000000000000000000000000000000000000000000000000000008152600401610c619061185e565b60405180910390fd5b600073ffffffffffffffffffffffffffffffffffffffff168273ffffffffffffffffffffffffffffffffffffffff161415610cda576040517f08c379a0000000000000000000000000000000000000000000000000000000008152600401610cd1906118f0565b60405180910390fd5b610ce58383836110a1565b60008060008573ffffffffffffffffffffffffffffffffffffffff1673ffffffffffffffffffffffffffffffffffffffff16815260200190815260200160002054905081811015610d6b576040517f08c379a0000000000000000000000000000000000000000000000000000000008152600401610d6290611982565b60405180910390fd5b8181036000808673ffffffffffffffffffffffffffffffffffffffff1673ffffffffffffffffffffffffffffffffffffffff16815260200190815260200160002081905550816000808573ffffffffffffffffffffffffffffffffffffffff1673ffffffffffffffffffffffffffffffffffffffff1681526020019081526020016000206000828254610dfe91906114e2565b925050819055508273ffffffffffffffffffffffffffffffffffffffff168473ffffffffffffffffffffffffffffffffffffffff167fddf252ad1be2c89b69c2b068fc378daa952ba7f163c4a11628f55a4df523b3ef84604051610e629190611284565b60405180910390a3610e758484846110a6565b50505050565b600073ffffffffffffffffffffffffffffffffffffffff168273ffffffffffffffffffffffffffffffffffffffff161415610eeb576040517f08c379a0000000000000000000000000000000000000000000000000000000008152600401610ee2906119ee565b60405180910390fd5b610ef7600083836110a1565b8060026000828254610f0991906114e2565b92505081905550806000808473ffffffffffffffffffffffffffffffffffffffff1673ffffffffffffffffffffffffffffffffffffffff1681526020019081526020016000206000828254610f5e91906114e2565b925050819055508173ffffffffffffffffffffffffffffffffffffffff16600073ffffffffffffffffffffffffffffffffffffffff167fddf252ad1be2c89b69c2b068fc378daa952ba7f163c4a11628f55a4df523b3ef83604051610fc39190611284565b60405180910390a3610fd7600083836110a6565b5050565b6000600560009054906101000a900473ffffffffffffffffffffffffffffffffffffffff16905081600560006101000a81548173ffffffffffffffffffffffffffffffffffffffff021916908373ffffffffffffffffffffffffffffffffffffffff1602179055508173ffffffffffffffffffffffffffffffffffffffff168173ffffffffffffffffffffffffffffffffffffffff167f8be0079c531659141344cd1fd0a4f28419497f9722a3daafe3b4186f6b6457e060405160405180910390a35050565b505050565b505050565b600081519050919050565b600082825260208201905092915050565b60005b838110156110e55780820151818401526020810190506110ca565b838111156110f4576000848401525b50505050565b6000601f19601f8301169050919050565b6000611116826110ab565b61112081856110b6565b93506111308185602086016110c7565b611139816110fa565b840191505092915050565b6000602082019050818103600083015261115e818461110b565b905092915050565b600080fd5b600073ffffffffffffffffffffffffffffffffffffffff82169050919050565b60006111968261116b565b9050919050565b6111a68161118b565b81146111b157600080fd5b50565b6000813590506111c38161119d565b92915050565b6000819050919050565b6111dc816111c9565b81146111e757600080fd5b50565b6000813590506111f9816111d3565b92915050565b6000806040838503121561121657611215611166565b5b6000611224858286016111b4565b9250506020611235858286016111ea565b9150509250929050565b60008115159050919050565b6112548161123f565b82525050565b600060208201905061126f600083018461124b565b92915050565b61127e816111c9565b82525050565b60006020820190506112996000830184611275565b92915050565b6000806000606084860312156112b8576112b7611166565b5b60006112c6868287016111b4565b93505060206112d7868287016111b4565b92505060406112e8868287016111ea565b9150509250925092565b600060ff82169050919050565b611308816112f2565b82525050565b600060208201905061132360008301846112ff565b92915050565b60006020828403121561133f5761133e611166565b5b600061134d848285016111b4565b91505092915050565b61135f8161118b565b82525050565b600060208201905061137a6000830184611356565b92915050565b6000806040838503121561139757611396611166565b5b60006113a5858286016111b4565b92505060206113b6858286016111b4565b9150509250929050565b7f4e487b7100000000000000000000000000000000000000000000000000000000600052602260045260246000fd5b6000600282049050600182168061140757607f821691505b6020821081141561141b5761141a6113c0565b5b50919050565b7f45524332303a207472616e7366657220616d6f756e742065786365656473206160008201527f6c6c6f77616e6365000000000000000000000000000000000000000000000000602082015250565b600061147d6028836110b6565b915061148882611421565b604082019050919050565b600060208201905081810360008301526114ac81611470565b9050919050565b7f4e487b7100000000000000000000000000000000000000000000000000000000600052601160045260246000fd5b60006114ed826111c9565b91506114f8836111c9565b9250827fffffffffffffffffffffffffffffffffffffffffffffffffffffffffffffffff0382111561152d5761152c6114b3565b5b828201905092915050565b7f4f776e61626c653a2063616c6c6572206973206e6f7420746865206f776e6572600082015250565b600061156e6020836110b6565b915061157982611538565b602082019050919050565b6000602082019050818103600083015261159d81611561565b9050919050565b7f45524332303a2064656372656173656420616c6c6f77616e63652062656c6f7760008201527f207a65726f000000000000000000000000000000000000000000000000000000602082015250565b60006116006025836110b6565b915061160b826115a4565b604082019050919050565b6000602082019050818103600083015261162f816115f3565b9050919050565b7f4f776e61626c653a206e6577206f776e657220697320746865207a65726f206160008201527f6464726573730000000000000000000000000000000000000000000000000000602082015250565b60006116926026836110b6565b915061169d82611636565b604082019050919050565b600060208201905081810360008301526116c181611685565b9050919050565b7f45524332303a20617070726f76652066726f6d20746865207a65726f2061646460008201527f7265737300000000000000000000000000000000000000000000000000000000602082015250565b60006117246024836110b6565b915061172f826116c8565b604082019050919050565b6000602082019050818103600083015261175381611717565b9050919050565b7f45524332303a20617070726f766520746f20746865207a65726f20616464726560008201527f7373000000000000000000000000000000000000000000000000000000000000602082015250565b60006117b66022836110b6565b91506117c18261175a565b604082019050919050565b600060208201905081810360008301526117e5816117a9565b9050919050565b7f45524332303a207472616e736665722066726f6d20746865207a65726f20616460008201527f6472657373000000000000000000000000000000000000000000000000000000602082015250565b60006118486025836110b6565b9150611853826117ec565b604082019050919050565b600060208201905081810360008301526118778161183b565b9050919050565b7f45524332303a207472616e7366657220746f20746865207a65726f206164647260008201527f6573730000000000000000000000000000000000000000000000000000000000602082015250565b60006118da6023836110b6565b91506118e58261187e565b604082019050919050565b60006020820190508181036000830152611909816118cd565b9050919050565b7f45524332303a207472616e7366657220616d6f756e742065786365656473206260008201527f616c616e63650000000000000000000000000000000000000000000000000000602082015250565b600061196c6026836110b6565b915061197782611910565b604082019050919050565b6000602082019050818103600083015261199b8161195f565b9050919050565b7f45524332303a206d696e7420746f20746865207a65726f206164647265737300600082015250565b60006119d8601f836110b6565b91506119e3826119a2565b602082019050919050565b60006020820190508181036000830152611a07816119cb565b905091905056fea264697066735822122083262207210fd42d01cefbc4e25039bd107c195d22c0ed8314552f5ac7a6715564736f6c63430008090033a26469706673582212206b8183c471af503214fe63766419465c4cd8f6936af5ba6332a71863bf62133964736f6c63430008090033",
  "immutableReferences": {},
  "source": "// SPDX-License-Identifier: MIT\npragma solidity ^0.8.0;\n\nimport \"@openzeppelin/contracts/token/ERC721/ERC721.sol\";\nimport \"@openzeppelin/contracts/utils/Counters.sol\";\nimport \"./OneGame.sol\";\nimport \"./States.sol\";\n\ncontract AllGames is ERC721 {\n    States states;\n    constructor(States _states) ERC721(\"GameOfLife\", \"GoL\") {\n        states = _states;\n    }\n    \n    using Counters for Counters.Counter;\n    Counters.Counter private _tokenIdTracker;\n    \n    struct Single_Game {\n        OneGame _gameContract;\n        uint8 _counterInitialInputs;\n        bool _alive;\n        uint256 _tokenId;\n    } \n    /// Mapping from tokenId to Games\n    mapping(uint256 => Single_Game) public games;\n    // Maping tokenId to state\n    event StateChange(uint256 _tokenId, address _gameAddress, bool _alive, uint8 _counterInitialInputs);\n\n    function inputState(uint256 _tokenId, uint[] memory _state) public {\n        if (games[_tokenId]._alive == false) {\n            games[_tokenId]._gameContract.mint(msg.sender, 10000000000000000000);\n            games[_tokenId]._counterInitialInputs++;\n            states.setState(_state, _tokenId);\n            if (games[_tokenId]._counterInitialInputs == 10) {\n                games[_tokenId]._alive = true;\n            }\n        } else {\n            states.setState(_state, _tokenId);\n        }\n        emit StateChange(_tokenId, address(games[_tokenId]._gameContract), games[_tokenId]._alive, games[_tokenId]._counterInitialInputs);\n    }\n\n    function transitionToNewState(uint256 _tokenId) public {\n        states.nextState(_tokenId);\n        games[_tokenId]._gameContract.mint(msg.sender, 1000000000000000000);\n        emit StateChange(_tokenId, address(games[_tokenId]._gameContract), games[_tokenId]._alive, games[_tokenId]._counterInitialInputs);\n    }    \n\n    function lastIndex() public view returns(uint) {\n        return _tokenIdTracker.current();\n    }\n    \n    function mint(uint[] memory _state) public {\n        OneGame game = new OneGame(100000000000000000000, this, msg.sender);\n        games[_tokenIdTracker.current()]._gameContract = game;\n        games[_tokenIdTracker.current()]._tokenId = _tokenIdTracker.current();\n        states.setState(_state, _tokenIdTracker.current());\n        games[_tokenIdTracker.current()]._counterInitialInputs = 1;\n\n        emit StateChange(_tokenIdTracker.current(), address(game), games[_tokenIdTracker.current()]._alive, games[_tokenIdTracker.current()]._counterInitialInputs);\n\n        super._mint(address(game), _tokenIdTracker.current());\n        _tokenIdTracker.increment();\n    }\n\n    function getState(uint256 _tokenId) public returns(uint[] memory stateArray) {\n        return states.getState(_tokenId);\n    }\n} ",
  "sourcePath": "/Users/c-h.poensgen/Desktop/ethlisbon/contracts/AllGames.sol",
  "compiler": {
    "name": "solc",
    "version": "0.8.9+commit.e5eed63a.Emscripten.clang"
  },
  "schemaVersion": "3.4.3",
  "updatedAt": "2021-10-24T09:43:07.443Z",
  "networkType": "ethereum",
  "devdoc": {
    "kind": "dev",
    "methods": {
      "approve(address,uint256)": {
        "details": "See {IERC721-approve}."
      },
      "balanceOf(address)": {
        "details": "See {IERC721-balanceOf}."
      },
      "getApproved(uint256)": {
        "details": "See {IERC721-getApproved}."
      },
      "isApprovedForAll(address,address)": {
        "details": "See {IERC721-isApprovedForAll}."
      },
      "name()": {
        "details": "See {IERC721Metadata-name}."
      },
      "ownerOf(uint256)": {
        "details": "See {IERC721-ownerOf}."
      },
      "safeTransferFrom(address,address,uint256)": {
        "details": "See {IERC721-safeTransferFrom}."
      },
      "safeTransferFrom(address,address,uint256,bytes)": {
        "details": "See {IERC721-safeTransferFrom}."
      },
      "setApprovalForAll(address,bool)": {
        "details": "See {IERC721-setApprovalForAll}."
      },
      "supportsInterface(bytes4)": {
        "details": "See {IERC165-supportsInterface}."
      },
      "symbol()": {
        "details": "See {IERC721Metadata-symbol}."
      },
      "tokenURI(uint256)": {
        "details": "See {IERC721Metadata-tokenURI}."
      },
      "transferFrom(address,address,uint256)": {
        "details": "See {IERC721-transferFrom}."
      }
    },
    "version": 1
  },
  "userdoc": {
    "kind": "user",
    "methods": {
      "games(uint256)": {
        "notice": "Mapping from tokenId to Games"
      }
    },
    "version": 1
  }
}