{
  "contractName": "States",
  "abi": [
    {
      "inputs": [],
      "stateMutability": "nonpayable",
      "type": "constructor"
    },
    {
      "anonymous": false,
      "inputs": [
        {
          "indexed": true,
          "internalType": "address",
          "name": "previousOwner",
          "type": "address"
        },
        {
          "indexed": true,
          "internalType": "address",
          "name": "newOwner",
          "type": "address"
        }
      ],
      "name": "OwnershipTransferred",
      "type": "event"
    },
    {
      "inputs": [],
      "name": "owner",
      "outputs": [
        {
          "internalType": "address",
          "name": "",
          "type": "address"
        }
      ],
      "stateMutability": "view",
      "type": "function",
      "constant": true
    },
    {
      "inputs": [],
      "name": "renounceOwnership",
      "outputs": [],
      "stateMutability": "nonpayable",
      "type": "function"
    },
    {
      "inputs": [
        {
          "internalType": "uint256",
          "name": "",
          "type": "uint256"
        },
        {
          "internalType": "uint256",
          "name": "",
          "type": "uint256"
        }
      ],
      "name": "states",
      "outputs": [
        {
          "internalType": "bool",
          "name": "",
          "type": "bool"
        }
      ],
      "stateMutability": "view",
      "type": "function",
      "constant": true
    },
    {
      "inputs": [
        {
          "internalType": "address",
          "name": "newOwner",
          "type": "address"
        }
      ],
      "name": "transferOwnership",
      "outputs": [],
      "stateMutability": "nonpayable",
      "type": "function"
    },
    {
      "inputs": [
        {
          "internalType": "uint256",
          "name": "_tokenId",
          "type": "uint256"
        }
      ],
      "name": "nextState",
      "outputs": [],
      "stateMutability": "nonpayable",
      "type": "function"
    },
    {
      "inputs": [
        {
          "internalType": "uint256[]",
          "name": "input",
          "type": "uint256[]"
        },
        {
          "internalType": "uint256",
          "name": "_tokenId",
          "type": "uint256"
        }
      ],
      "name": "setState",
      "outputs": [],
      "stateMutability": "nonpayable",
      "type": "function"
    },
    {
      "inputs": [
        {
          "internalType": "uint256",
          "name": "_tokenId",
          "type": "uint256"
        }
      ],
      "name": "getState",
      "outputs": [
        {
          "internalType": "uint256[]",
          "name": "",
          "type": "uint256[]"
        }
      ],
      "stateMutability": "nonpayable",
      "type": "function"
    }
  ],
  "bytecode": "0x608060405234801561001057600080fd5b5061002d61002261003260201b60201c565b61003a60201b60201c565b6100fe565b600033905090565b60008060009054906101000a900473ffffffffffffffffffffffffffffffffffffffff169050816000806101000a81548173ffffffffffffffffffffffffffffffffffffffff021916908373ffffffffffffffffffffffffffffffffffffffff1602179055508173ffffffffffffffffffffffffffffffffffffffff168173ffffffffffffffffffffffffffffffffffffffff167f8be0079c531659141344cd1fd0a4f28419497f9722a3daafe3b4186f6b6457e060405160405180910390a35050565b611d0f8061010d6000396000f3fe608060405234801561001057600080fd5b506004361061007d5760003560e01c8063715018a61161005b578063715018a6146100fe5780638da5cb5b14610108578063f2fde38b14610126578063fdb3bde6146101425761007d565b806336e50d541461008257806344c9af28146100b257806356ac12ec146100e2575b600080fd5b61009c6004803603810190610097919061164c565b61015e565b6040516100a991906116a7565b60405180910390f35b6100cc60048036038101906100c791906116c2565b61018d565b6040516100d991906117ad565b60405180910390f35b6100fc60048036038101906100f79190611928565b6102ad565b005b610106610371565b005b6101106103f9565b60405161011d91906119c5565b60405180910390f35b610140600480360381019061013b9190611a0c565b610422565b005b61015c600480360381019061015791906116c2565b61051a565b005b60016020528160005260406000206020528060005260406000206000915091509054906101000a900460ff1681565b60606002600061019d91906115c4565b60005b6064811015610254576000151560016000858152602001908152602001600020600083815260200190815260200160002060009054906101000a900460ff161515141561021657600260009080600181540180825580915050600190039060005260206000200160009091909190915055610241565b6002600190806001815401808255809150506001900390600052602060002001600090919091909150555b808061024c90611a68565b9150506101a0565b5060028054806020026020016040519081016040528092919081815260200182805480156102a157602002820191906000526020600020905b81548152602001906001019080831161028d575b50505050509050919050565b60005b825181101561036c5760008382815181106102ce576102cd611ab1565b5b6020026020010151141561031e57600060016000848152602001908152602001600020600083815260200190815260200160002060006101000a81548160ff02191690831515021790555061035b565b6001806000848152602001908152602001600020600083815260200190815260200160002060006101000a81548160ff0219169083151502179055505b8061036590611a68565b90506102b0565b505050565b6103796114f8565b73ffffffffffffffffffffffffffffffffffffffff166103976103f9565b73ffffffffffffffffffffffffffffffffffffffff16146103ed576040517f08c379a00000000000000000000000000000000000000000000000000000000081526004016103e490611b3d565b60405180910390fd5b6103f76000611500565b565b60008060009054906101000a900473ffffffffffffffffffffffffffffffffffffffff16905090565b61042a6114f8565b73ffffffffffffffffffffffffffffffffffffffff166104486103f9565b73ffffffffffffffffffffffffffffffffffffffff161461049e576040517f08c379a000000000000000000000000000000000000000000000000000000000815260040161049590611b3d565b60405180910390fd5b600073ffffffffffffffffffffffffffffffffffffffff168173ffffffffffffffffffffffffffffffffffffffff16141561050e576040517f08c379a000000000000000000000000000000000000000000000000000000000815260040161050590611bcf565b60405180910390fd5b61051781611500565b50565b60005b60648110156114f45760006009821180156105385750605a82105b801561055d57506001600a6001846105509190611bef565b61055a9190611c74565b14155b801561058257506000600a6001846105759190611bef565b61057f9190611c74565b14155b1561085057600115156001600085815260200190815260200160002060006001856105ad9190611ca5565b815260200190815260200160002060009054906101000a900460ff16151514156105e05780806105dc90611a68565b9150505b600115156001600085815260200190815260200160002060006001856106069190611bef565b815260200190815260200160002060009054906101000a900460ff161515141561063957808061063590611a68565b9150505b60011515600160008581526020019081526020016000206000600a8561065f9190611ca5565b815260200190815260200160002060009054906101000a900460ff161515141561069257808061068e90611a68565b9150505b60011515600160008581526020019081526020016000206000600a856106b89190611bef565b815260200190815260200160002060009054906101000a900460ff16151514156106eb5780806106e790611a68565b9150505b60011515600160008581526020019081526020016000206000600b856107119190611ca5565b815260200190815260200160002060009054906101000a900460ff161515141561074457808061074090611a68565b9150505b6001151560016000858152602001908152602001600020600060098561076a9190611ca5565b815260200190815260200160002060009054906101000a900460ff161515141561079d57808061079990611a68565b9150505b600115156001600085815260200190815260200160002060006009856107c39190611bef565b815260200190815260200160002060009054906101000a900460ff16151514156107f65780806107f290611a68565b9150505b60011515600160008581526020019081526020016000206000600b8561081c9190611bef565b815260200190815260200160002060009054906101000a900460ff161515141561084f57808061084b90611a68565b9150505b5b600a821015610bf257600082141561097257600115156001600085815260200190815260200160002060006001856108889190611bef565b815260200190815260200160002060009054906101000a900460ff16151514156108bb5780806108b790611a68565b9150505b60011515600160008581526020019081526020016000206000600a856108e19190611bef565b815260200190815260200160002060009054906101000a900460ff161515141561091457808061091090611a68565b9150505b60011515600160008581526020019081526020016000206000600b8561093a9190611bef565b815260200190815260200160002060009054906101000a900460ff161515141561096d57808061096990611a68565b9150505b610bf1565b6009821415610a8b57600115156001600085815260200190815260200160002060006001856109a19190611ca5565b815260200190815260200160002060009054906101000a900460ff16151514156109d45780806109d090611a68565b9150505b60011515600160008581526020019081526020016000206000600a856109fa9190611bef565b815260200190815260200160002060009054906101000a900460ff1615151415610a2d578080610a2990611a68565b9150505b60011515600160008581526020019081526020016000206000600985610a539190611bef565b815260200190815260200160002060009054906101000a900460ff1615151415610a86578080610a8290611a68565b9150505b610bf0565b60011515600160008581526020019081526020016000206000600185610ab19190611ca5565b815260200190815260200160002060009054906101000a900460ff1615151415610ae4578080610ae090611a68565b9150505b60011515600160008581526020019081526020016000206000600185610b0a9190611bef565b815260200190815260200160002060009054906101000a900460ff1615151415610b3d578080610b3990611a68565b9150505b60011515600160008581526020019081526020016000206000600985610b639190611bef565b815260200190815260200160002060009054906101000a900460ff1615151415610b96578080610b9290611a68565b9150505b60011515600160008581526020019081526020016000206000600b85610bbc9190611bef565b815260200190815260200160002060009054906101000a900460ff1615151415610bef578080610beb90611a68565b9150505b5b5b5b605a8210610f9357605a821415610d135760011515600160008581526020019081526020016000206000600185610c299190611bef565b815260200190815260200160002060009054906101000a900460ff1615151415610c5c578080610c5890611a68565b9150505b60011515600160008581526020019081526020016000206000600a85610c829190611ca5565b815260200190815260200160002060009054906101000a900460ff1615151415610cb5578080610cb190611a68565b9150505b60011515600160008581526020019081526020016000206000600985610cdb9190611ca5565b815260200190815260200160002060009054906101000a900460ff1615151415610d0e578080610d0a90611a68565b9150505b610f92565b6063821415610e2c5760011515600160008581526020019081526020016000206000600185610d429190611ca5565b815260200190815260200160002060009054906101000a900460ff1615151415610d75578080610d7190611a68565b9150505b60011515600160008581526020019081526020016000206000600a85610d9b9190611ca5565b815260200190815260200160002060009054906101000a900460ff1615151415610dce578080610dca90611a68565b9150505b60011515600160008581526020019081526020016000206000600b85610df49190611ca5565b815260200190815260200160002060009054906101000a900460ff1615151415610e27578080610e2390611a68565b9150505b610f91565b60011515600160008581526020019081526020016000206000600185610e529190611ca5565b815260200190815260200160002060009054906101000a900460ff1615151415610e85578080610e8190611a68565b9150505b60011515600160008581526020019081526020016000206000600185610eab9190611bef565b815260200190815260200160002060009054906101000a900460ff1615151415610ede578080610eda90611a68565b9150505b60011515600160008581526020019081526020016000206000600b85610f049190611ca5565b815260200190815260200160002060009054906101000a900460ff1615151415610f37578080610f3390611a68565b9150505b60011515600160008581526020019081526020016000206000600985610f5d9190611ca5565b815260200190815260200160002060009054906101000a900460ff1615151415610f90578080610f8c90611a68565b9150505b5b5b5b6000600a600184610fa49190611bef565b610fae9190611c74565b148015610fbb5750600a82115b8015610fc75750605a82105b1561118a5760011515600160008581526020019081526020016000206000600185610ff29190611bef565b815260200190815260200160002060009054906101000a900460ff161515141561102557808061102190611a68565b9150505b60011515600160008581526020019081526020016000206000600a8561104b9190611ca5565b815260200190815260200160002060009054906101000a900460ff161515141561107e57808061107a90611a68565b9150505b60011515600160008581526020019081526020016000206000600a856110a49190611bef565b815260200190815260200160002060009054906101000a900460ff16151514156110d75780806110d390611a68565b9150505b600115156001600085815260200190815260200160002060006009856110fd9190611ca5565b815260200190815260200160002060009054906101000a900460ff161515141561113057808061112c90611a68565b9150505b60011515600160008581526020019081526020016000206000600b856111569190611bef565b815260200190815260200160002060009054906101000a900460ff161515141561118957808061118590611a68565b9150505b5b6001600a60018461119b9190611bef565b6111a59190611c74565b1480156111b25750600a82115b80156111be5750605a82105b1561138157600115156001600085815260200190815260200160002060006001856111e99190611ca5565b815260200190815260200160002060009054906101000a900460ff161515141561121c57808061121890611a68565b9150505b60011515600160008581526020019081526020016000206000600a856112429190611ca5565b815260200190815260200160002060009054906101000a900460ff161515141561127557808061127190611a68565b9150505b60011515600160008581526020019081526020016000206000600a8561129b9190611bef565b815260200190815260200160002060009054906101000a900460ff16151514156112ce5780806112ca90611a68565b9150505b60011515600160008581526020019081526020016000206000600b856112f49190611ca5565b815260200190815260200160002060009054906101000a900460ff161515141561132757808061132390611a68565b9150505b6001151560016000858152602001908152602001600020600060098561134d9190611bef565b815260200190815260200160002060009054906101000a900460ff161515141561138057808061137c90611a68565b9150505b5b6001151560016000858152602001908152602001600020600084815260200190815260200160002060009054906101000a900460ff16151514156114575760028114806113ce5750600381145b15611414576001806000858152602001908152602001600020600084815260200190815260200160002060006101000a81548160ff021916908315150217905550611452565b600060016000858152602001908152602001600020600084815260200190815260200160002060006101000a81548160ff0219169083151502179055505b6114e0565b60038114156114a1576001806000858152602001908152602001600020600084815260200190815260200160002060006101000a81548160ff0219169083151502179055506114df565b600060016000858152602001908152602001600020600084815260200190815260200160002060006101000a81548160ff0219169083151502179055505b5b5080806114ec90611a68565b91505061051d565b5050565b600033905090565b60008060009054906101000a900473ffffffffffffffffffffffffffffffffffffffff169050816000806101000a81548173ffffffffffffffffffffffffffffffffffffffff021916908373ffffffffffffffffffffffffffffffffffffffff1602179055508173ffffffffffffffffffffffffffffffffffffffff168173ffffffffffffffffffffffffffffffffffffffff167f8be0079c531659141344cd1fd0a4f28419497f9722a3daafe3b4186f6b6457e060405160405180910390a35050565b50805460008255906000526020600020908101906115e291906115e5565b50565b5b808211156115fe5760008160009055506001016115e6565b5090565b6000604051905090565b600080fd5b600080fd5b6000819050919050565b61162981611616565b811461163457600080fd5b50565b60008135905061164681611620565b92915050565b600080604083850312156116635761166261160c565b5b600061167185828601611637565b925050602061168285828601611637565b9150509250929050565b60008115159050919050565b6116a18161168c565b82525050565b60006020820190506116bc6000830184611698565b92915050565b6000602082840312156116d8576116d761160c565b5b60006116e684828501611637565b91505092915050565b600081519050919050565b600082825260208201905092915050565b6000819050602082019050919050565b61172481611616565b82525050565b6000611736838361171b565b60208301905092915050565b6000602082019050919050565b600061175a826116ef565b61176481856116fa565b935061176f8361170b565b8060005b838110156117a0578151611787888261172a565b975061179283611742565b925050600181019050611773565b5085935050505092915050565b600060208201905081810360008301526117c7818461174f565b905092915050565b600080fd5b6000601f19601f8301169050919050565b7f4e487b7100000000000000000000000000000000000000000000000000000000600052604160045260246000fd5b61181d826117d4565b810181811067ffffffffffffffff8211171561183c5761183b6117e5565b5b80604052505050565b600061184f611602565b905061185b8282611814565b919050565b600067ffffffffffffffff82111561187b5761187a6117e5565b5b602082029050602081019050919050565b600080fd5b60006118a461189f84611860565b611845565b905080838252602082019050602084028301858111156118c7576118c661188c565b5b835b818110156118f057806118dc8882611637565b8452602084019350506020810190506118c9565b5050509392505050565b600082601f83011261190f5761190e6117cf565b5b813561191f848260208601611891565b91505092915050565b6000806040838503121561193f5761193e61160c565b5b600083013567ffffffffffffffff81111561195d5761195c611611565b5b611969858286016118fa565b925050602061197a85828601611637565b9150509250929050565b600073ffffffffffffffffffffffffffffffffffffffff82169050919050565b60006119af82611984565b9050919050565b6119bf816119a4565b82525050565b60006020820190506119da60008301846119b6565b92915050565b6119e9816119a4565b81146119f457600080fd5b50565b600081359050611a06816119e0565b92915050565b600060208284031215611a2257611a2161160c565b5b6000611a30848285016119f7565b91505092915050565b7f4e487b7100000000000000000000000000000000000000000000000000000000600052601160045260246000fd5b6000611a7382611616565b91507fffffffffffffffffffffffffffffffffffffffffffffffffffffffffffffffff821415611aa657611aa5611a39565b5b600182019050919050565b7f4e487b7100000000000000000000000000000000000000000000000000000000600052603260045260246000fd5b600082825260208201905092915050565b7f4f776e61626c653a2063616c6c6572206973206e6f7420746865206f776e6572600082015250565b6000611b27602083611ae0565b9150611b3282611af1565b602082019050919050565b60006020820190508181036000830152611b5681611b1a565b9050919050565b7f4f776e61626c653a206e6577206f776e657220697320746865207a65726f206160008201527f6464726573730000000000000000000000000000000000000000000000000000602082015250565b6000611bb9602683611ae0565b9150611bc482611b5d565b604082019050919050565b60006020820190508181036000830152611be881611bac565b9050919050565b6000611bfa82611616565b9150611c0583611616565b9250827fffffffffffffffffffffffffffffffffffffffffffffffffffffffffffffffff03821115611c3a57611c39611a39565b5b828201905092915050565b7f4e487b7100000000000000000000000000000000000000000000000000000000600052601260045260246000fd5b6000611c7f82611616565b9150611c8a83611616565b925082611c9a57611c99611c45565b5b828206905092915050565b6000611cb082611616565b9150611cbb83611616565b925082821015611cce57611ccd611a39565b5b82820390509291505056fea2646970667358221220b02caab0f0dd6087a1ea4bdd2728dafc798cdca5a8e3999965d48fd990e3127764736f6c63430008090033",
  "immutableReferences": {},
  "source": "// SPDX-License-Identifier: MIT\n\npragma solidity ^0.8.0;\nimport \"@openzeppelin/contracts/access/Ownable.sol\";\n\ncontract States is Ownable{\n    // TokenIds to State\n    mapping(uint256 => mapping(uint256 => bool)) public states;\n    uint[] stateArray;\n\n    constructor() {}\n    \n    function nextState(uint256 _tokenId) public {\n        \n        for(uint i = 0; i < 100; i++) {\n            \n            uint aliveNeighbors = 0;\n            \n            /// Cell not touching any edges\n            if (i > 9 && i < 90 && (i+1)%10 != 1 && (i+1)%10 != 0) {\n                \n                // left neighbor\n                if (states[_tokenId][i-1] == true) {\n                    aliveNeighbors++;\n                }\n                // right neighbor\n                if (states[_tokenId][i+1] == true) {\n                    aliveNeighbors++;\n                }\n                // top neighbor\n                if (states[_tokenId][i-10] == true) {\n                    aliveNeighbors++;\n                }\n                // bottom neighbor\n                if (states[_tokenId][i+10] == true) {\n                    aliveNeighbors++;\n                }\n                // top left neighbor\n                if (states[_tokenId][i-11] == true) {\n                    aliveNeighbors++;\n                }\n                // top right neighbor\n                if (states[_tokenId][i-9] == true) {\n                    aliveNeighbors++;\n                }\n                // bottom left neighbor\n                if (states[_tokenId][i+9] == true) {\n                    aliveNeighbors++;\n                }\n                // bottom right neighbor\n                if (states[_tokenId][i+11] == true) {\n                    aliveNeighbors++;\n                }\n            }\n            \n            // Top row \n            if (i < 10) {\n                if (i == 0) { // top left\n                    // right neighbor\n                    if (states[_tokenId][i+1] == true) {\n                        aliveNeighbors++;\n                    }\n                    // bottom neighbor\n                    if (states[_tokenId][i+10] == true) {\n                        aliveNeighbors++;\n                    }\n                    // bottom right neighbor\n                    if (states[_tokenId][i+11] == true) {\n                        aliveNeighbors++;\n                    }\n                } else if (i == 9) { // top right\n                    // left neighbor\n                    if (states[_tokenId][i-1] == true) {\n                        aliveNeighbors++;\n                    }\n                    // bottom neighbor\n                    if (states[_tokenId][i+10] == true) {\n                        aliveNeighbors++;\n                    }\n                    // bottom left neighbor\n                    if (states[_tokenId][i+9] == true) {\n                        aliveNeighbors++;\n                    }\n                } else { // top middle cells\n                    // left neighbor\n                    if (states[_tokenId][i-1] == true) {\n                        aliveNeighbors++;\n                    }\n                    // right neighbor\n                    if (states[_tokenId][i+1] == true) {\n                        aliveNeighbors++;\n                    }\n                    // bottom left neighbor\n                    if (states[_tokenId][i+9] == true) {\n                        aliveNeighbors++;\n                    }\n                    // bottom right neighbor\n                    if (states[_tokenId][i+11] == true) {\n                        aliveNeighbors++;\n                    }\n                }\n            }\n            \n            // Bottom row \n            if (i >= 90) {\n                if (i == 90) { // bottom left\n                    // right neighbor\n                    if (states[_tokenId][i+1] == true) {\n                        aliveNeighbors++;\n                    }\n                    // top neighbor\n                    if (states[_tokenId][i-10] == true) {\n                        aliveNeighbors++;\n                    }\n                    // top right neighbor\n                    if (states[_tokenId][i-9] == true) {\n                        aliveNeighbors++;\n                    }\n                } else if (i == 99) { // bottom right\n                    // left neighbor\n                    if (states[_tokenId][i-1] == true) {\n                        aliveNeighbors++;\n                    }\n                    // top neighbor\n                    if (states[_tokenId][i-10] == true) {\n                        aliveNeighbors++;\n                    }\n                    // top left neighbor\n                    if (states[_tokenId][i-11] == true) {\n                        aliveNeighbors++;\n                    }\n                } else { // bottom middle cells\n                    // left neighbor\n                    if (states[_tokenId][i-1] == true) {\n                        aliveNeighbors++;\n                    }\n                    // right neighbor\n                    if (states[_tokenId][i+1] == true) {\n                        aliveNeighbors++;\n                    }\n                    // top left neighbor\n                    if (states[_tokenId][i-11] == true) {\n                        aliveNeighbors++;\n                    }\n                    // top right neighbor\n                    if (states[_tokenId][i-9] == true) {\n                        aliveNeighbors++;\n                    }\n                }\n            }\n            \n            // left column\n            if ((i+1)%10 == 0 && i>10 && i<90) {\n                // right neighbor\n                if (states[_tokenId][i+1] == true) {\n                    aliveNeighbors++;\n                }\n                // top neighbor\n                if (states[_tokenId][i-10] == true) {\n                    aliveNeighbors++;\n                }\n                // bottom neighbor\n                if (states[_tokenId][i+10] == true) {\n                    aliveNeighbors++;\n                }\n                // top right neighbor\n                if (states[_tokenId][i-9] == true) {\n                    aliveNeighbors++;\n                }\n                // bottom right neighbor\n                if (states[_tokenId][i+11] == true) {\n                    aliveNeighbors++;\n                }\n            }\n            \n            // right column\n            if ((i+1)%10 == 1 && i>10 && i<90) {\n                // left neighbor\n                if (states[_tokenId][i-1] == true) {\n                    aliveNeighbors++;\n                }\n                // top neighbor\n                if (states[_tokenId][i-10] == true) {\n                    aliveNeighbors++;\n                }\n                // bottom neighbor\n                if (states[_tokenId][i+10] == true) {\n                    aliveNeighbors++;\n                }\n                // top left neighbor\n                if (states[_tokenId][i-11] == true) {\n                    aliveNeighbors++;\n                }\n                // bottom left neighbor\n                if (states[_tokenId][i+9] == true) {\n                    aliveNeighbors++;\n                }\n            }\n        \n            /// Given number of alive neighbors move to next state\n            if (states[_tokenId][i] == true) {\n                if (aliveNeighbors == 2 || aliveNeighbors == 3) {\n                    states[_tokenId][i] = true;\n                } else {\n                    states[_tokenId][i] = false;\n                }\n            } else {\n                if (aliveNeighbors == 3) {\n                    states[_tokenId][i] = true;\n                } else {\n                    states[_tokenId][i] = false;\n                }\n            }\n        }\n    }\n    \n\n    function setState(uint[] memory input, uint256 _tokenId) public {\n        for(uint i=0; i<input.length; ++i) {\n            if (input[i] == 0) {\n                states[_tokenId][i] = false;\n            } else {\n                states[_tokenId][i] = true;\n            }\n        }\n    }\n    \n    function getState(uint256 _tokenId) public returns(uint[] memory) {\n        delete stateArray;\n        for(uint i = 0; i < 100; i++) {\n            if (states[_tokenId][i] == false) {\n                stateArray.push(0);\n            } else {\n                stateArray.push(1);\n            }\n        }\n        return stateArray;\n    }\n    \n}",
  "sourcePath": "/Users/c-h.poensgen/Desktop/ethlisbon/contracts/States.sol",
  "compiler": {
    "name": "solc",
    "version": "0.8.9+commit.e5eed63a.Emscripten.clang"
  },
  "schemaVersion": "3.4.3",
  "updatedAt": "2021-10-24T08:18:03.485Z",
  "networkType": "ethereum",
  "devdoc": {
    "kind": "dev",
    "methods": {
      "owner()": {
        "details": "Returns the address of the current owner."
      },
      "renounceOwnership()": {
        "details": "Leaves the contract without owner. It will not be possible to call `onlyOwner` functions anymore. Can only be called by the current owner. NOTE: Renouncing ownership will leave the contract without an owner, thereby removing any functionality that is only available to the owner."
      },
      "transferOwnership(address)": {
        "details": "Transfers ownership of the contract to a new account (`newOwner`). Can only be called by the current owner."
      }
    },
    "version": 1
  },
  "userdoc": {
    "kind": "user",
    "methods": {},
    "version": 1
  }
}