{
  "contractName": "States",
  "abi": [
    {
      "inputs": [],
      "stateMutability": "nonpayable",
      "type": "constructor"
    },
    {
      "anonymous": false,
      "inputs": [
        {
          "indexed": true,
          "internalType": "address",
          "name": "previousOwner",
          "type": "address"
        },
        {
          "indexed": true,
          "internalType": "address",
          "name": "newOwner",
          "type": "address"
        }
      ],
      "name": "OwnershipTransferred",
      "type": "event"
    },
    {
      "inputs": [
        {
          "internalType": "uint256",
          "name": "",
          "type": "uint256"
        },
        {
          "internalType": "uint256",
          "name": "",
          "type": "uint256"
        }
      ],
      "name": "newStates",
      "outputs": [
        {
          "internalType": "bool",
          "name": "",
          "type": "bool"
        }
      ],
      "stateMutability": "view",
      "type": "function",
      "constant": true
    },
    {
      "inputs": [],
      "name": "owner",
      "outputs": [
        {
          "internalType": "address",
          "name": "",
          "type": "address"
        }
      ],
      "stateMutability": "view",
      "type": "function",
      "constant": true
    },
    {
      "inputs": [],
      "name": "renounceOwnership",
      "outputs": [],
      "stateMutability": "nonpayable",
      "type": "function"
    },
    {
      "inputs": [
        {
          "internalType": "uint256",
          "name": "",
          "type": "uint256"
        },
        {
          "internalType": "uint256",
          "name": "",
          "type": "uint256"
        }
      ],
      "name": "states",
      "outputs": [
        {
          "internalType": "bool",
          "name": "",
          "type": "bool"
        }
      ],
      "stateMutability": "view",
      "type": "function",
      "constant": true
    },
    {
      "inputs": [
        {
          "internalType": "address",
          "name": "newOwner",
          "type": "address"
        }
      ],
      "name": "transferOwnership",
      "outputs": [],
      "stateMutability": "nonpayable",
      "type": "function"
    },
    {
      "inputs": [
        {
          "internalType": "uint256",
          "name": "_tokenId",
          "type": "uint256"
        }
      ],
      "name": "nextState",
      "outputs": [],
      "stateMutability": "nonpayable",
      "type": "function"
    },
    {
      "inputs": [
        {
          "internalType": "uint256[]",
          "name": "input",
          "type": "uint256[]"
        },
        {
          "internalType": "uint256",
          "name": "_tokenId",
          "type": "uint256"
        }
      ],
      "name": "setState",
      "outputs": [],
      "stateMutability": "nonpayable",
      "type": "function"
    },
    {
      "inputs": [
        {
          "internalType": "uint256",
          "name": "_tokenId",
          "type": "uint256"
        }
      ],
      "name": "getState",
      "outputs": [
        {
          "internalType": "uint256[]",
          "name": "",
          "type": "uint256[]"
        }
      ],
      "stateMutability": "nonpayable",
      "type": "function"
    }
  ],
  "bytecode": "0x608060405234801561001057600080fd5b5061002d61002261003260201b60201c565b61003a60201b60201c565b6100fe565b600033905090565b60008060009054906101000a900473ffffffffffffffffffffffffffffffffffffffff169050816000806101000a81548173ffffffffffffffffffffffffffffffffffffffff021916908373ffffffffffffffffffffffffffffffffffffffff1602179055508173ffffffffffffffffffffffffffffffffffffffff168173ffffffffffffffffffffffffffffffffffffffff167f8be0079c531659141344cd1fd0a4f28419497f9722a3daafe3b4186f6b6457e060405160405180910390a35050565b611e758061010d6000396000f3fe608060405234801561001057600080fd5b50600436106100885760003560e01c8063715018a61161005b578063715018a6146101395780638da5cb5b14610143578063f2fde38b14610161578063fdb3bde61461017d57610088565b806336e50d541461008d5780633d7cfae9146100bd57806344c9af28146100ed57806356ac12ec1461011d575b600080fd5b6100a760048036038101906100a291906117b2565b610199565b6040516100b4919061180d565b60405180910390f35b6100d760048036038101906100d291906117b2565b6101c8565b6040516100e4919061180d565b60405180910390f35b61010760048036038101906101029190611828565b6101f7565b6040516101149190611913565b60405180910390f35b61013760048036038101906101329190611a8e565b610317565b005b610141610448565b005b61014b6104d0565b6040516101589190611b2b565b60405180910390f35b61017b60048036038101906101769190611b72565b6104f9565b005b61019760048036038101906101929190611828565b6105f1565b005b60016020528160005260406000206020528060005260406000206000915091509054906101000a900460ff1681565b60036020528160005260406000206020528060005260406000206000915091509054906101000a900460ff1681565b606060026000610207919061172a565b60005b60648110156102be576000151560016000858152602001908152602001600020600083815260200190815260200160002060009054906101000a900460ff1615151415610280576002600090806001815401808255809150506001900390600052602060002001600090919091909150556102ab565b6002600190806001815401808255809150506001900390600052602060002001600090919091909150555b80806102b690611bce565b91505061020a565b50600280548060200260200160405190810160405280929190818152602001828054801561030b57602002820191906000526020600020905b8154815260200190600101908083116102f7575b50505050509050919050565b60005b825181101561044357600083828151811061033857610337611c17565b5b6020026020010151141561038857600060016000848152602001908152602001600020600083815260200190815260200160002060006101000a81548160ff0219169083151502179055506103c5565b6001806000848152602001908152602001600020600083815260200190815260200160002060006101000a81548160ff0219169083151502179055505b60016000838152602001908152602001600020600082815260200190815260200160002060009054906101000a900460ff1660036000848152602001908152602001600020600083815260200190815260200160002060006101000a81548160ff0219169083151502179055508061043c90611bce565b905061031a565b505050565b61045061165e565b73ffffffffffffffffffffffffffffffffffffffff1661046e6104d0565b73ffffffffffffffffffffffffffffffffffffffff16146104c4576040517f08c379a00000000000000000000000000000000000000000000000000000000081526004016104bb90611ca3565b60405180910390fd5b6104ce6000611666565b565b60008060009054906101000a900473ffffffffffffffffffffffffffffffffffffffff16905090565b61050161165e565b73ffffffffffffffffffffffffffffffffffffffff1661051f6104d0565b73ffffffffffffffffffffffffffffffffffffffff1614610575576040517f08c379a000000000000000000000000000000000000000000000000000000000815260040161056c90611ca3565b60405180910390fd5b600073ffffffffffffffffffffffffffffffffffffffff168173ffffffffffffffffffffffffffffffffffffffff1614156105e5576040517f08c379a00000000000000000000000000000000000000000000000000000000081526004016105dc90611d35565b60405180910390fd5b6105ee81611666565b50565b60005b60648110156115cd57600060098211801561060f5750605a82105b801561063457506001600a6001846106279190611d55565b6106319190611dda565b14155b801561065957506000600a60018461064c9190611d55565b6106569190611dda565b14155b1561092757600115156001600085815260200190815260200160002060006001856106849190611e0b565b815260200190815260200160002060009054906101000a900460ff16151514156106b75780806106b390611bce565b9150505b600115156001600085815260200190815260200160002060006001856106dd9190611d55565b815260200190815260200160002060009054906101000a900460ff161515141561071057808061070c90611bce565b9150505b60011515600160008581526020019081526020016000206000600a856107369190611e0b565b815260200190815260200160002060009054906101000a900460ff161515141561076957808061076590611bce565b9150505b60011515600160008581526020019081526020016000206000600a8561078f9190611d55565b815260200190815260200160002060009054906101000a900460ff16151514156107c25780806107be90611bce565b9150505b60011515600160008581526020019081526020016000206000600b856107e89190611e0b565b815260200190815260200160002060009054906101000a900460ff161515141561081b57808061081790611bce565b9150505b600115156001600085815260200190815260200160002060006009856108419190611e0b565b815260200190815260200160002060009054906101000a900460ff161515141561087457808061087090611bce565b9150505b6001151560016000858152602001908152602001600020600060098561089a9190611d55565b815260200190815260200160002060009054906101000a900460ff16151514156108cd5780806108c990611bce565b9150505b60011515600160008581526020019081526020016000206000600b856108f39190611d55565b815260200190815260200160002060009054906101000a900460ff161515141561092657808061092290611bce565b9150505b5b600a821015610cc9576000821415610a49576001151560016000858152602001908152602001600020600060018561095f9190611d55565b815260200190815260200160002060009054906101000a900460ff161515141561099257808061098e90611bce565b9150505b60011515600160008581526020019081526020016000206000600a856109b89190611d55565b815260200190815260200160002060009054906101000a900460ff16151514156109eb5780806109e790611bce565b9150505b60011515600160008581526020019081526020016000206000600b85610a119190611d55565b815260200190815260200160002060009054906101000a900460ff1615151415610a44578080610a4090611bce565b9150505b610cc8565b6009821415610b625760011515600160008581526020019081526020016000206000600185610a789190611e0b565b815260200190815260200160002060009054906101000a900460ff1615151415610aab578080610aa790611bce565b9150505b60011515600160008581526020019081526020016000206000600a85610ad19190611d55565b815260200190815260200160002060009054906101000a900460ff1615151415610b04578080610b0090611bce565b9150505b60011515600160008581526020019081526020016000206000600985610b2a9190611d55565b815260200190815260200160002060009054906101000a900460ff1615151415610b5d578080610b5990611bce565b9150505b610cc7565b60011515600160008581526020019081526020016000206000600185610b889190611e0b565b815260200190815260200160002060009054906101000a900460ff1615151415610bbb578080610bb790611bce565b9150505b60011515600160008581526020019081526020016000206000600185610be19190611d55565b815260200190815260200160002060009054906101000a900460ff1615151415610c14578080610c1090611bce565b9150505b60011515600160008581526020019081526020016000206000600985610c3a9190611d55565b815260200190815260200160002060009054906101000a900460ff1615151415610c6d578080610c6990611bce565b9150505b60011515600160008581526020019081526020016000206000600b85610c939190611d55565b815260200190815260200160002060009054906101000a900460ff1615151415610cc6578080610cc290611bce565b9150505b5b5b5b605a821061106a57605a821415610dea5760011515600160008581526020019081526020016000206000600185610d009190611d55565b815260200190815260200160002060009054906101000a900460ff1615151415610d33578080610d2f90611bce565b9150505b60011515600160008581526020019081526020016000206000600a85610d599190611e0b565b815260200190815260200160002060009054906101000a900460ff1615151415610d8c578080610d8890611bce565b9150505b60011515600160008581526020019081526020016000206000600985610db29190611e0b565b815260200190815260200160002060009054906101000a900460ff1615151415610de5578080610de190611bce565b9150505b611069565b6063821415610f035760011515600160008581526020019081526020016000206000600185610e199190611e0b565b815260200190815260200160002060009054906101000a900460ff1615151415610e4c578080610e4890611bce565b9150505b60011515600160008581526020019081526020016000206000600a85610e729190611e0b565b815260200190815260200160002060009054906101000a900460ff1615151415610ea5578080610ea190611bce565b9150505b60011515600160008581526020019081526020016000206000600b85610ecb9190611e0b565b815260200190815260200160002060009054906101000a900460ff1615151415610efe578080610efa90611bce565b9150505b611068565b60011515600160008581526020019081526020016000206000600185610f299190611e0b565b815260200190815260200160002060009054906101000a900460ff1615151415610f5c578080610f5890611bce565b9150505b60011515600160008581526020019081526020016000206000600185610f829190611d55565b815260200190815260200160002060009054906101000a900460ff1615151415610fb5578080610fb190611bce565b9150505b60011515600160008581526020019081526020016000206000600b85610fdb9190611e0b565b815260200190815260200160002060009054906101000a900460ff161515141561100e57808061100a90611bce565b9150505b600115156001600085815260200190815260200160002060006009856110349190611e0b565b815260200190815260200160002060009054906101000a900460ff161515141561106757808061106390611bce565b9150505b5b5b5b6000600a60018461107b9190611d55565b6110859190611dda565b1480156110925750600a82115b801561109e5750605a82105b1561126157600115156001600085815260200190815260200160002060006001856110c99190611d55565b815260200190815260200160002060009054906101000a900460ff16151514156110fc5780806110f890611bce565b9150505b60011515600160008581526020019081526020016000206000600a856111229190611e0b565b815260200190815260200160002060009054906101000a900460ff161515141561115557808061115190611bce565b9150505b60011515600160008581526020019081526020016000206000600a8561117b9190611d55565b815260200190815260200160002060009054906101000a900460ff16151514156111ae5780806111aa90611bce565b9150505b600115156001600085815260200190815260200160002060006009856111d49190611e0b565b815260200190815260200160002060009054906101000a900460ff161515141561120757808061120390611bce565b9150505b60011515600160008581526020019081526020016000206000600b8561122d9190611d55565b815260200190815260200160002060009054906101000a900460ff161515141561126057808061125c90611bce565b9150505b5b6001600a6001846112729190611d55565b61127c9190611dda565b1480156112895750600a82115b80156112955750605a82105b1561145857600115156001600085815260200190815260200160002060006001856112c09190611e0b565b815260200190815260200160002060009054906101000a900460ff16151514156112f35780806112ef90611bce565b9150505b60011515600160008581526020019081526020016000206000600a856113199190611e0b565b815260200190815260200160002060009054906101000a900460ff161515141561134c57808061134890611bce565b9150505b60011515600160008581526020019081526020016000206000600a856113729190611d55565b815260200190815260200160002060009054906101000a900460ff16151514156113a55780806113a190611bce565b9150505b60011515600160008581526020019081526020016000206000600b856113cb9190611e0b565b815260200190815260200160002060009054906101000a900460ff16151514156113fe5780806113fa90611bce565b9150505b600115156001600085815260200190815260200160002060006009856114249190611d55565b815260200190815260200160002060009054906101000a900460ff161515141561145757808061145390611bce565b9150505b5b6001151560016000858152602001908152602001600020600084815260200190815260200160002060009054906101000a900460ff161515141561152f5760028114806114a55750600381145b156114ec57600160036000858152602001908152602001600020600084815260200190815260200160002060006101000a81548160ff02191690831515021790555061152a565b600060036000858152602001908152602001600020600084815260200190815260200160002060006101000a81548160ff0219169083151502179055505b6115b9565b600381141561157a57600160036000858152602001908152602001600020600084815260200190815260200160002060006101000a81548160ff0219169083151502179055506115b8565b600060036000858152602001908152602001600020600084815260200190815260200160002060006101000a81548160ff0219169083151502179055505b5b5080806115c590611bce565b9150506105f4565b5060005b606481101561165a5760036000838152602001908152602001600020600082815260200190815260200160002060009054906101000a900460ff1660016000848152602001908152602001600020600083815260200190815260200160002060006101000a81548160ff021916908315150217905550808061165290611bce565b9150506115d1565b5050565b600033905090565b60008060009054906101000a900473ffffffffffffffffffffffffffffffffffffffff169050816000806101000a81548173ffffffffffffffffffffffffffffffffffffffff021916908373ffffffffffffffffffffffffffffffffffffffff1602179055508173ffffffffffffffffffffffffffffffffffffffff168173ffffffffffffffffffffffffffffffffffffffff167f8be0079c531659141344cd1fd0a4f28419497f9722a3daafe3b4186f6b6457e060405160405180910390a35050565b5080546000825590600052602060002090810190611748919061174b565b50565b5b8082111561176457600081600090555060010161174c565b5090565b6000604051905090565b600080fd5b600080fd5b6000819050919050565b61178f8161177c565b811461179a57600080fd5b50565b6000813590506117ac81611786565b92915050565b600080604083850312156117c9576117c8611772565b5b60006117d78582860161179d565b92505060206117e88582860161179d565b9150509250929050565b60008115159050919050565b611807816117f2565b82525050565b600060208201905061182260008301846117fe565b92915050565b60006020828403121561183e5761183d611772565b5b600061184c8482850161179d565b91505092915050565b600081519050919050565b600082825260208201905092915050565b6000819050602082019050919050565b61188a8161177c565b82525050565b600061189c8383611881565b60208301905092915050565b6000602082019050919050565b60006118c082611855565b6118ca8185611860565b93506118d583611871565b8060005b838110156119065781516118ed8882611890565b97506118f8836118a8565b9250506001810190506118d9565b5085935050505092915050565b6000602082019050818103600083015261192d81846118b5565b905092915050565b600080fd5b6000601f19601f8301169050919050565b7f4e487b7100000000000000000000000000000000000000000000000000000000600052604160045260246000fd5b6119838261193a565b810181811067ffffffffffffffff821117156119a2576119a161194b565b5b80604052505050565b60006119b5611768565b90506119c1828261197a565b919050565b600067ffffffffffffffff8211156119e1576119e061194b565b5b602082029050602081019050919050565b600080fd5b6000611a0a611a05846119c6565b6119ab565b90508083825260208201905060208402830185811115611a2d57611a2c6119f2565b5b835b81811015611a565780611a42888261179d565b845260208401935050602081019050611a2f565b5050509392505050565b600082601f830112611a7557611a74611935565b5b8135611a858482602086016119f7565b91505092915050565b60008060408385031215611aa557611aa4611772565b5b600083013567ffffffffffffffff811115611ac357611ac2611777565b5b611acf85828601611a60565b9250506020611ae08582860161179d565b9150509250929050565b600073ffffffffffffffffffffffffffffffffffffffff82169050919050565b6000611b1582611aea565b9050919050565b611b2581611b0a565b82525050565b6000602082019050611b406000830184611b1c565b92915050565b611b4f81611b0a565b8114611b5a57600080fd5b50565b600081359050611b6c81611b46565b92915050565b600060208284031215611b8857611b87611772565b5b6000611b9684828501611b5d565b91505092915050565b7f4e487b7100000000000000000000000000000000000000000000000000000000600052601160045260246000fd5b6000611bd98261177c565b91507fffffffffffffffffffffffffffffffffffffffffffffffffffffffffffffffff821415611c0c57611c0b611b9f565b5b600182019050919050565b7f4e487b7100000000000000000000000000000000000000000000000000000000600052603260045260246000fd5b600082825260208201905092915050565b7f4f776e61626c653a2063616c6c6572206973206e6f7420746865206f776e6572600082015250565b6000611c8d602083611c46565b9150611c9882611c57565b602082019050919050565b60006020820190508181036000830152611cbc81611c80565b9050919050565b7f4f776e61626c653a206e6577206f776e657220697320746865207a65726f206160008201527f6464726573730000000000000000000000000000000000000000000000000000602082015250565b6000611d1f602683611c46565b9150611d2a82611cc3565b604082019050919050565b60006020820190508181036000830152611d4e81611d12565b9050919050565b6000611d608261177c565b9150611d6b8361177c565b9250827fffffffffffffffffffffffffffffffffffffffffffffffffffffffffffffffff03821115611da057611d9f611b9f565b5b828201905092915050565b7f4e487b7100000000000000000000000000000000000000000000000000000000600052601260045260246000fd5b6000611de58261177c565b9150611df08361177c565b925082611e0057611dff611dab565b5b828206905092915050565b6000611e168261177c565b9150611e218361177c565b925082821015611e3457611e33611b9f565b5b82820390509291505056fea2646970667358221220a2518ff416daf232cfc36cdb97494e5e0ccc42b1c3145709fe89edff5550828b64736f6c63430008090033",
  "immutableReferences": {},
  "source": "// SPDX-License-Identifier: MIT\n\npragma solidity ^0.8.0;\nimport \"@openzeppelin/contracts/access/Ownable.sol\";\n\ncontract States is Ownable{\n    // TokenIds to State\n    mapping(uint256 => mapping(uint256 => bool)) public states;\n\n    uint[] stateArray;\n    mapping(uint256 => mapping(uint256 => bool)) public newStates;\n\n    constructor() {}\n\n    function nextState(uint256 _tokenId) public {\n        \n        for(uint i = 0; i < 100; i++) {\n            \n            uint aliveNeighbors = 0;\n            \n            /// Cell not touching any edges\n            if (i > 9 && i < 90 && (i+1)%10 != 1 && (i+1)%10 != 0) {\n                \n                // left neighbor\n                if (states[_tokenId][i-1] == true) {\n                    aliveNeighbors++;\n                }\n                // right neighbor\n                if (states[_tokenId][i+1] == true) {\n                    aliveNeighbors++;\n                }\n                // top neighbor\n                if (states[_tokenId][i-10] == true) {\n                    aliveNeighbors++;\n                }\n                // bottom neighbor\n                if (states[_tokenId][i+10] == true) {\n                    aliveNeighbors++;\n                }\n                // top left neighbor\n                if (states[_tokenId][i-11] == true) {\n                    aliveNeighbors++;\n                }\n                // top right neighbor\n                if (states[_tokenId][i-9] == true) {\n                    aliveNeighbors++;\n                }\n                // bottom left neighbor\n                if (states[_tokenId][i+9] == true) {\n                    aliveNeighbors++;\n                }\n                // bottom right neighbor\n                if (states[_tokenId][i+11] == true) {\n                    aliveNeighbors++;\n                }\n            }\n            \n            // Top row \n            if (i < 10) {\n                if (i == 0) { // top left\n                    // right neighbor\n                    if (states[_tokenId][i+1] == true) {\n                        aliveNeighbors++;\n                    }\n                    // bottom neighbor\n                    if (states[_tokenId][i+10] == true) {\n                        aliveNeighbors++;\n                    }\n                    // bottom right neighbor\n                    if (states[_tokenId][i+11] == true) {\n                        aliveNeighbors++;\n                    }\n                } else if (i == 9) { // top right\n                    // left neighbor\n                    if (states[_tokenId][i-1] == true) {\n                        aliveNeighbors++;\n                    }\n                    // bottom neighbor\n                    if (states[_tokenId][i+10] == true) {\n                        aliveNeighbors++;\n                    }\n                    // bottom left neighbor\n                    if (states[_tokenId][i+9] == true) {\n                        aliveNeighbors++;\n                    }\n                } else { // top middle cells\n                    // left neighbor\n                    if (states[_tokenId][i-1] == true) {\n                        aliveNeighbors++;\n                    }\n                    // right neighbor\n                    if (states[_tokenId][i+1] == true) {\n                        aliveNeighbors++;\n                    }\n                    // bottom left neighbor\n                    if (states[_tokenId][i+9] == true) {\n                        aliveNeighbors++;\n                    }\n                    // bottom right neighbor\n                    if (states[_tokenId][i+11] == true) {\n                        aliveNeighbors++;\n                    }\n                }\n            }\n            \n            // Bottom row \n            if (i >= 90) {\n                if (i == 90) { // bottom left\n                    // right neighbor\n                    if (states[_tokenId][i+1] == true) {\n                        aliveNeighbors++;\n                    }\n                    // top neighbor\n                    if (states[_tokenId][i-10] == true) {\n                        aliveNeighbors++;\n                    }\n                    // top right neighbor\n                    if (states[_tokenId][i-9] == true) {\n                        aliveNeighbors++;\n                    }\n                } else if (i == 99) { // bottom right\n                    // left neighbor\n                    if (states[_tokenId][i-1] == true) {\n                        aliveNeighbors++;\n                    }\n                    // top neighbor\n                    if (states[_tokenId][i-10] == true) {\n                        aliveNeighbors++;\n                    }\n                    // top left neighbor\n                    if (states[_tokenId][i-11] == true) {\n                        aliveNeighbors++;\n                    }\n                } else { // bottom middle cells\n                    // left neighbor\n                    if (states[_tokenId][i-1] == true) {\n                        aliveNeighbors++;\n                    }\n                    // right neighbor\n                    if (states[_tokenId][i+1] == true) {\n                        aliveNeighbors++;\n                    }\n                    // top left neighbor\n                    if (states[_tokenId][i-11] == true) {\n                        aliveNeighbors++;\n                    }\n                    // top right neighbor\n                    if (states[_tokenId][i-9] == true) {\n                        aliveNeighbors++;\n                    }\n                }\n            }\n            \n            // left column\n            if ((i+1)%10 == 0 && i>10 && i<90) {\n                // right neighbor\n                if (states[_tokenId][i+1] == true) {\n                    aliveNeighbors++;\n                }\n                // top neighbor\n                if (states[_tokenId][i-10] == true) {\n                    aliveNeighbors++;\n                }\n                // bottom neighbor\n                if (states[_tokenId][i+10] == true) {\n                    aliveNeighbors++;\n                }\n                // top right neighbor\n                if (states[_tokenId][i-9] == true) {\n                    aliveNeighbors++;\n                }\n                // bottom right neighbor\n                if (states[_tokenId][i+11] == true) {\n                    aliveNeighbors++;\n                }\n            }\n            \n            // right column\n            if ((i+1)%10 == 1 && i>10 && i<90) {\n                // left neighbor\n                if (states[_tokenId][i-1] == true) {\n                    aliveNeighbors++;\n                }\n                // top neighbor\n                if (states[_tokenId][i-10] == true) {\n                    aliveNeighbors++;\n                }\n                // bottom neighbor\n                if (states[_tokenId][i+10] == true) {\n                    aliveNeighbors++;\n                }\n                // top left neighbor\n                if (states[_tokenId][i-11] == true) {\n                    aliveNeighbors++;\n                }\n                // bottom left neighbor\n                if (states[_tokenId][i+9] == true) {\n                    aliveNeighbors++;\n                }\n            }\n        \n            /// Given number of alive neighbors move to next state\n            if (states[_tokenId][i] == true) {\n                if (aliveNeighbors == 2 || aliveNeighbors == 3) {\n                    newStates[_tokenId][i] = true;\n                } else {\n                    newStates[_tokenId][i] = false;\n                }\n            } else {\n                if (aliveNeighbors == 3) {\n                    newStates[_tokenId][i] = true;\n                } else {\n                    newStates[_tokenId][i] = false;\n                }\n            }\n        }\n        for (uint i = 0; i < 100; i++) {\n           states[_tokenId][i] = newStates[_tokenId][i]; \n        }\n    }\n    \n\n    function setState(uint[] memory input, uint256 _tokenId) public {\n        for(uint i=0; i<input.length; ++i) {\n            if (input[i] == 0) {\n                states[_tokenId][i] = false;\n            } else {\n                states[_tokenId][i] = true;\n            }\n            newStates[_tokenId][i] = states[_tokenId][i];\n        }\n    }\n    \n    function getState(uint256 _tokenId) public returns(uint[] memory) {\n        delete stateArray;\n        for(uint i = 0; i < 100; i++) {\n            if (states[_tokenId][i] == false) {\n                stateArray.push(0);\n            } else {\n                stateArray.push(1);\n            }\n        }\n        return stateArray;\n    }\n    \n}",
  "sourcePath": "/Users/c-h.poensgen/Desktop/ethlisbon/contracts/States.sol",
  "compiler": {
    "name": "solc",
    "version": "0.8.9+commit.e5eed63a.Emscripten.clang"
  },
  "schemaVersion": "3.4.3",
  "updatedAt": "2021-10-24T09:43:07.466Z",
  "networkType": "ethereum",
  "devdoc": {
    "kind": "dev",
    "methods": {
      "owner()": {
        "details": "Returns the address of the current owner."
      },
      "renounceOwnership()": {
        "details": "Leaves the contract without owner. It will not be possible to call `onlyOwner` functions anymore. Can only be called by the current owner. NOTE: Renouncing ownership will leave the contract without an owner, thereby removing any functionality that is only available to the owner."
      },
      "transferOwnership(address)": {
        "details": "Transfers ownership of the contract to a new account (`newOwner`). Can only be called by the current owner."
      }
    },
    "version": 1
  },
  "userdoc": {
    "kind": "user",
    "methods": {},
    "version": 1
  }
}